:100000000C94BA000C94A4020C94E2000C94E2004C
:100010000C94E2000C94E2000C94E2000C94E200D8
:100020000C94E2000C94E2000C94E2000C94E200C8
:100030000C94E2000C94E2000C94E2000C94E200B8
:100040000C9402020C94E2000C9472020C944C0288
:100050000C94E2000C94E2000C94E2000C94E20098
:100060000C94E2000C94E20020202020202020208C
:1000700020202020200960202020202020713120F5
:1000800020207A73617732202063786465343320CE
:100090002020766674723520206E6268677936207B
:1000A00020206D6A75373820202C6B696F3039201D
:1000B000202E2F6C3B702D20202027205B3D202000
:1000C00020200D5D205C20202020202020200820E2
:1000D0002031203437202020302E323536381B2076
:1000E000202B332D2A3920202020202020202020C2
:1000F000202020202020202020097E2020202020B9
:100100002051212020205A53415740202043584459
:10011000452423202020564654522520204E424874
:1001200047595E2020204D4A55262A20203C4B4925
:100130004F292820203E3F4C3A505F20202022208B
:100140007B2B202020200D7D207C202020202020A3
:10015000202008202031203437202020302E323536
:1001600036381B20202B332D2A3920202020202018
:100170002000E00411241FBECFEFD8E0DEBFCDBFCA
:1001800011E0A0E0B1E0E4E3FAE002C005900D92D6
:10019000A03CB107D9F722E0A0ECB1E001C01D926C
:1001A000A03DB207E1F710E0CAEBD0E004C0219710
:1001B000FE010E940D05C93BD107C9F70E945B04EF
:1001C0000C9418050C940000CF92DF92EF92FF92EE
:1001D0000F931F93CF93DF936C017A018B01C0E0E3
:1001E000D0E0CE15DF0589F0D8016D918D01D601E3
:1001F000ED91FC910190F081E02DC6010995892BCC
:1002000011F47E0102C02196ECCFC701DF91CF919E
:100210001F910F91FF90EF90DF90CF900895089578
:1002200080E090E00895FC01538D448D252F30E04F
:10023000842F90E0821B930B541710F0CF960895F3
:1002400001970895FC01918D828D981761F0828D40
:10025000DF01A80FB11D5D968C91928D9F5F9F73FA
:10026000928F90E008958FEF9FEF0895FC01918D9C
:10027000828D981731F0828DE80FF11D858D90E009
:1002800008958FEF9FEF0895FC01918D228D892FA6
:1002900090E0805C9F4F821B91098F73992708958E
:1002A00083E392E00E94440121E0892B09F420E0DD
:1002B000822F0895FC01848DDF01A80FB11DA35A80
:1002C000BF4F2C91848D90E001968F739927848F76
:1002D000A689B7892C93A089B1898C9180648C936D
:1002E000938D848D981306C00288F389E02D808158
:1002F0008F7D80830895EF92FF920F931F93CF938A
:10030000DF93EC0181E0888F9B8D8C8D981305C065
:10031000E889F989808185FD24C0F62E0B8D10E0D7
:100320000F5F1F4F0F731127E02E8C8DE8120CC04A
:100330000FB607FCFACFE889F989808185FFF5CFF0
:10034000CE010E945A01F1CF8B8DFE01E80FF11D05
:10035000E35AFF4FF0820B8FEA89FB89808180622C
:1003600007C0EE89FF896083E889F989808180640C
:10037000808381E090E0DF91CF911F910F91FF90FA
:10038000EF900895CF93DF93EC01888D8823C9F017
:10039000EA89FB89808185FD05C0A889B9898C918E
:1003A00086FD0FC00FB607FCF5CF808185FFF2CF29
:1003B000A889B9898C9185FFEDCFCE010E945A01A1
:1003C000E7CFDF91CF91089580E090E0892B29F06D
:1003D0000E94500181110C9400000895009769F06B
:1003E000FC0101900020E9F73197AF01481B590B40
:1003F000BC0183E392E00C94E40080E090E0089577
:100400000E9413051F920F920FB60F9211242F9383
:100410003F938F939F93AF93BF9380912F029091BF
:100420003002A0913102B091320230912E0223E0CD
:10043000230F2D3720F40196A11DB11D05C026E81C
:10044000230F0296A11DB11D20932E0280932F022F
:1004500090933002A0933102B093320280912A022D
:1004600090912B02A0912C02B0912D020196A11D1A
:10047000B11D80932A0290932B02A0932C02B0937B
:100480002D02BF91AF919F918F913F912F910F902E
:100490000FBE0F901F9018951F920F920FB60F92DC
:1004A00011242F933F934F935F936F937F938F9379
:1004B0009F93AF93BF93EF93FF9383E392E00E94E8
:1004C0005A01FF91EF91BF91AF919F918F917F91D1
:1004D0006F915F914F913F912F910F900FBE0F90B1
:1004E0001F9018951F920F920FB60F9211242F9301
:1004F0008F939F93EF93FF93E0914302F091440217
:100500008081E0914902F0914A0282FD12C09081FF
:1005100080914C028F5F8F7320914D02821751F0B2
:10052000E0914C02F0E0ED5CFD4F958F80934C0222
:1005300001C08081FF91EF919F918F912F910F903A
:100540000FBE0F901F9018951F920F920FB60F922B
:1005500011242F933F934F935F936F937F938F93C8
:100560009F93AF93BF93CF93DF93EF93FF938091CC
:100570002201909123014C9B0AC0209128023091C6
:100580002902282B392B3093290220932802880F27
:10059000991F90932301809322018115984009F0BF
:1005A00077C180912802909129029C0121703470BA
:1005B0002115344009F06CC18E7F91709595879517
:1005C000109229021092280221E030E0309323019A
:1005D000209322018A3A910509F45AC1803F91057E
:1005E00029F4309327022093260252C1803E9105C0
:1005F00029F430932502209324024AC12091260237
:1006000030912702232B99F08231910519F0893519
:10061000910521F4109223021092220210922702D7
:1006200010922602109225021092240231C18231CA
:10063000910519F08935910531F421E030E03093CE
:100640002302209322022091240230912502232BA1
:1006500009F01EC1209122023091230244E8429FFA
:10066000F001439FF00D1124E80FF91FE859FF4FE7
:10067000C491C03219F4899709F00AC1E09133029C
:10068000F09134020190F081E02D6C2F83E392E031
:1006900009958091200290912102FC01E050FE4FCB
:1006A000C08301968032910529F0909321028093B6
:1006B0002002EEC01092210210922002109220021D
:1006C00080910002883629F0A4E4B1E0E0E0F1E096
:1006D000A1C0809101028433B9F78091020286376C
:1006E00099F780910302833379F7809104028E3663
:1006F00059F780910502803339F7809106028D34D5
:1007000019F7809107028033F9F680910802853746
:10071000D9F6809109028437B9F680910A028834AB
:1007200099F680910B02863279F680910C02813322
:1007300059F680910D028D3639F680910E0283357F
:1007400019F680910F02843709F0BECF8091100214
:10075000833709F0B9CF80911102833409F0B4CF07
:1007600080911202823709F0AFCF80911302833358
:1007700009F0AACF80911402843309F0A5CF8091AB
:1007800015028D3609F0A0CF809116028E3609F43D
:100790009BCF80911702853709F496CF809118027C
:1007A0008C3609F491CF809119028C3609F48CCFE4
:1007B00080911A02863709F487CF80911B02813617
:1007C00009F482CF80911C028C3609F47DCF809190
:1007D0001D02853709F478CF80911E02853609F411
:1007E00073CF80911F02803309F46ECFA0E0B2E096
:1007F000FD019CE080818927819382E0E631F80742
:10080000C9F7E0EEF1E08D91819322E0A631B207C5
:10081000D1F75ACF8D9190818927819341E0E031C2
:10082000F407C1F78091E001882339F1E4E2F1E0B7
:10083000C0EED1E0A0ECB1E08191999189278D9330
:1008400081E0EA33F807C1F71092D6018EE891E013
:100850000E94EE0180EC91E00E94EE0189E991E0B6
:100860000E94EE018CEB91E00E94EE018DE991E097
:100870000E94EE018CEB91E002C080EB91E00E94BF
:10088000EE0180E2E0E0F2E0DF011D928A95E9F7F7
:10089000FF91EF91DF91CF91BF91AF919F918F9198
:1008A0007F916F915F914F913F912F910F900FBE6C
:1008B0000F901F901895789484B5826084BD84B59C
:1008C000816084BD85B5826085BD85B5816085BD4B
:1008D00080916E00816080936E0010928100809103
:1008E000810082608093810080918100816080938B
:1008F0008100809180008160809380008091B100B0
:1009000084608093B1008091B00081608093B000DA
:1009100080917A00846080937A0080917A0082606E
:1009200080937A0080917A00816080937A00809130
:100930007A00806880937A001092C10092E09093D0
:1009400069008BB184618BB9E89AE0914302F09120
:1009500044029083E0913F02F09140021082E091C6
:100960004102F09142028FEC808310924B02E091A1
:100970004702F091480286E08083E0914502F091C1
:100980004602808180618083E0914502F0914602B9
:10099000808188608083E0914502F09146028081E9
:1009A00080688083E0914502F091460280818F7DCE
:1009B00080838CE791E00E94EE010E94E401FDCF6C
:1009C000E3E3F2E01382128288EE93E0A0E0B0E06D
:1009D00084839583A683B7838EE691E09183808399
:1009E00085EC90E09587848784EC90E097878687F4
:1009F00080EC90E0918B808B81EC90E0938B828BEC
:100A000082EC90E0958B848B86EC90E0978B868BC4
:100A1000118E128E138E148E0895EE0FFF1F059007
:100A2000F491E02D099481E090E0F8940C9418057D
:040A3000F894FFCF68
:100A34006E30375F345F6B33595F5233344C4C79CB
:100A44005F6237575F6C314B335F373037344C6CF0
:100A540059000100575D185C070974591A1D76186E
:100A6400045567491A2A480E00040B0F5E0E595D9F
:100A74000405595F464C41477B376831535F666CC8
:100A840034395F31535F373037346C4C795F6634B7
:100A94004B335F53307272597D00000000007B01BC
:100AA400E4001301C201440122013601456E74655C
:100AB40072206B657920706C7A2E2E2E0A000D0A36
:100AC4006374667A6F6E657B007D0D0A00546865F9
:100AD4002077696E6E657220697320796F752100C5
:100AE4000D0A57726F6E67206B6579210D0A00003D
:00000001FF
