:100000000C943D000C9465000C9465000C94650004
:100010000C9465000C9465000C9465000C946500CC
:100020000C9465000C9465000C9465000C946500BC
:100030000C9465000C9465000C9465000C946500AC
:100040000C9465000C9465000C9465000C9465009C
:100050000C9465000C9465000C9465000C9465008C
:100060000C9465000C9465006364696E6F70737521
:1000700078585B00BA00FA030D0411241FBECFEFBD
:10008000D8E0DEBFCDBF12E0A0E0B1E0ECEFF8E1D8
:1000900002C005900D92A433B107D9F722E0A4E382
:1000A000B2E001C01D92AE33B207E1F710E0CDE33C
:1000B000D0E004C02197FE010E946104CA33D10739
:1000C000C9F70E94B0030C947C0C0C940000FF92C2
:1000D0000F931F93CF93DF93D82FC92FF62E072F9F
:1000E000142F80EA0E9421048D2F0E9446048C2F39
:1000F0000E94460481EA0E942104CF2DD02FCE0118
:10010000810F911D8C01C017D10721F00E94570467
:100110008993F9CF0E943E041882DF91CF911F91FD
:100120000F91FF900895FF920F931F93CF93DF934A
:10013000D82FC92FF62E072F142F80EA0E942104F2
:100140008D2F0E9446048C2F0E944604CF2DD02F65
:10015000CE01810F911D8C01C017D10721F089912B
:100160000E944604F9CFDF91CF911F910F91FF902C
:100170000C943E040C9418049F92AF92BF92CF92BD
:10018000DF92EF92FF920F931F93CF93DF93CDB740
:10019000DEB7E5970FB6F894DEBF0FBECDBFCC2417
:1001A000C394D12C00E010E0912C26E0A22E21E097
:1001B000B22E41E0BE016C5C7F4FC8010E94670017
:1001C0004CA9842F90E001968E7F9927892B09F402
:1001D0006CC09394BE016F5F7F4FC80101960E946F
:1001E0006700DF92CF92BF92AF920E9432050F90CC
:1001F0000F900F900F908DE0E82EF12CECA96091FC
:10020000360270913702EE1518F480E290E00BC0D0
:10021000F0E0EE19FF0981E090E08C0F9D1FE80FE0
:10022000F91F808190E00E94F60491E0E91AF1083C
:1002300029F7609136027091370280E290E00E94C7
:10024000F60460913602709137028AE390E00E94D2
:10025000F604609136027091370280E290E00E94CD
:10026000F60441E0BE016C5C7F4FC8010C960E9411
:1002700067004CA9BE016F5F7F4FC8010D960E94B9
:100280006700F12C8CA9F81680F460913602709109
:100290003702E1E0F0E0EC0FFD1FEF0DF11D808172
:1002A00090E00E94F604F394EDCF005C1F4F8FEFB7
:1002B000C81AD80A00389CE0190709F07ACF1F92B3
:1002C0009F928CE091E09F938F930E9432050F9054
:1002D0000F900F900F9080E090E0E5960FB6F894A5
:1002E000DEBF0FBECDBFDF91CF911F910F91FF9069
:1002F000EF90DF90CF90BF90AF909F900895CF92F6
:10030000DF92EF92FF920F931F93CF93DF93CDB7BE
:10031000DEB7E4970FB6F894DEBF0FBECDBF1CAAC0
:1003200087E191E00E94480584E0F82E8E010F5F7E
:100330001F4F9DE2C92E91E0D92E8CA98230E8F49E
:10034000DF92CF920E9432054091340250913502E3
:100350006DE070E0C8010E94CA04F801019000201D
:10036000E9F73197E01BF10BECABFA940F900F908B
:10037000F110E3CF81E090E058C081508CABF801E0
:10038000E80FF11D1082E12CF12CD12C41E0BE01CF
:10039000625F7F4FC7010E9467008E8590E00196E3
:1003A0008E7F9927892BA9F541E0BE016C5C7F4FB8
:1003B000C7010E9493004CA9B801C70101960E9491
:1003C000930081E691E09F938F930E9432054091C4
:1003D00034025091350263E370E0C8010E94CA0400
:1003E000F80101900020E9F73197E01BF10BECAB2D
:1003F00041E0BE016C5C7F4FC7010C960E949300E8
:100400004CA9B801C7010D960E9493000F900F9060
:1004100007C0D39420E4E20EF11C84E6D812B6CFD4
:1004200081E090E024E6D21280E0E4960FB6F894E2
:10043000DEBF0FBECDBFDF91CF911F910F91FF9017
:10044000EF90DF90CF900895CF92DF92FF920F93BD
:100450001F93CF93DF93CDB7DEB7E5970FB6F89430
:10046000DEBF0FBECDBF8AE391E00E9448058CE459
:1004700091E09F938F930E943205409134025091F6
:1004800035026DE070E08E010F5F1F4FC8010E94C2
:10049000CA04CE01C5969F938F9389E591E09F93FF
:1004A0008F931F930F930E9478050FB6F894DEBFC9
:1004B0000FBECDBF019719F081E090E08FC08DA9EC
:1004C00081508436C8F78DAB41E0B80130E4839F9A
:1004D000C00111240E946700898190E001968E7FFF
:1004E0009927892B49F31CAA24E0F22E3DE2C32E62
:1004F00031E0D32E8CA98230D0F4DF92CF920E94CB
:10050000320540913402509135026DE070E0C8012F
:100510000E94CA04F80101900020E9F73197E01B1E
:10052000F10BECABFA940F900F90F11008C01CAADD
:1005300084E0F82E9EE5C92E91E0D92E4AC0E23023
:10054000C8F28DA941E0BE016C5C7F4F20E4829F20
:10055000C00111240E9493008DA930E4839FC00143
:1005600011244CA9B80101960E949300C3CFDF92D9
:10057000CF920E943205409134025091350263E3DC
:1005800070E0C8010E94CA04F80101900020E9F758
:100590003197E01BF10BECABFA940F900F90FF201A
:1005A000D9F0E230B0F08DA920E4829FC00111247F
:1005B00041E0BE016C5C7F4F0C960E9493008DA9B8
:1005C00030E4839FC00111244CA9B8010D960E940C
:1005D00093008CA9823058F280E090E0E5960FB647
:1005E000F894DEBF0FBECDBFDF91CF911F910F9169
:1005F000FF90DF90CF9008950F931F93CF93DF93D9
:1006000000D000D000D0CDB7DEB71D828EE691E0DD
:100610000E9448058CE491E09F938F930E943205DD
:10062000409134025091350264E070E08E010F5F1A
:100630001F4FC8010E94CA04CE0106969F938F9354
:1006400089E591E09F938F931F930F930E94780504
:100650000FB6F894DEBF0FBECDBF81309105A1F477
:100660002E81222399F0822F90E0019741E0BE0174
:100670006B5F7F4F26E0880F991F2A95E1F70E9454
:10068000930080E090E002C081E090E026960FB6F3
:10069000F894DEBF0FBECDBFDF91CF911F910F91B8
:1006A000089580E891E00E94480586E991E00E9463
:1006B00048058EEA91E00E94480586EC91E00E9490
:1006C00048058BED91E00E94480580E090E0089598
:1006D000CF93DF93EC0143E050E063EF71E00E94C1
:1006E0006704892B21F4DF91CF910C947F0144E0C2
:1006F00050E067EF71E0CE010E946704892B21F47E
:10070000DF91CF910C94BC0043E050E06CEF71E0BE
:10071000CE010E946704892B21F4DF91CF910C94C4
:10072000FC0244E050E060E072E0CE010E94670409
:10073000892B21F4DF91CF910C94240244E050E006
:1007400065E072E0CE010E946704892B21F4DF91FD
:10075000CF910C94510381E090E0DF91CF91089507
:10076000CF93DF93CDB7DEB7C456D1090FB6F89457
:10077000DEBF0FBECDBF8AE092E00E94480503E1D4
:1007800012E01F930F930E94320540913402509162
:10079000350264E670E0CE0101960E94CA04CE01E3
:1007A00001960E9468030F900F90892B51F381E20C
:1007B00092E00E944805E5CFCF93C82F8A3019F404
:1007C0008DE00E94DC038091C00085FD02C0A895E9
:1007D000FACFC093C6008C2FCC0F990BCF91089500
:1007E0008091C00087FD02C0A895FACF8091C60015
:1007F00090E00895E1ECF0E080818861808386E0FC
:100800008093C2001092C50087E68093C40060EF19
:1008100073E08CED93E00C947F0498E088E10FB6D0
:10082000F894A895809360000FBE9093600008959F
:10083000E9EBF0E080818160808382E18093B80001
:10084000089594EA9093BC009091BC0097FFFCCF70
:100850009091B900987F983011F0903169F48093AD
:10086000BB0084E88093BC008091BC0087FFFCCF74
:100870008091B900887F089581E0089584E980938C
:10088000BC008091BC0084FDFCCF08958093BB0028
:1008900084E88093BC008091BC0087FFFCCF9091DE
:1008A000B900987F81E0983209F480E0089584E8E7
:1008B0008093BC008091BC0087FFFCCF8091BB007F
:1008C0000895EE0FFF1F0590F491E02D0994FB01B0
:1008D000DC014150504088F08D9181341CF08B3503
:1008E0000CF4805E619161341CF06B350CF4605E39
:1008F000861B611171F3990B0895881BFCCF0F9330
:100900001F93CF93DF93009731F46115710519F4AC
:1009100080E090E03AC08B01EC016EE070E081E095
:1009200090E00E941F0AFC01892B91F380E88383E9
:100930000115110571F01387028781E88383809187
:10094000340290913502892B21F4F0933502E09323
:1009500034022097C9F0D187C08783818260838366
:100960008091360290913702892B71F4F09337020F
:10097000E09336028091380290913902892B21F45C
:10098000F0933902E0933802CF01DF91CF911F91AC
:100990000F910895A0E0B0E0E0EDF4E00C944F0C6E
:1009A000FA01238120FD03C080E090E01AC01616F2
:1009B0001706D4F77A018C01EB016C01C130D10527
:1009C00069F0C7010E948D0B8F3FFFEF9F0761F316
:1009D000F60181936F0121970A9781F7F601108242
:1009E000C801CDB7DEB7E8E00C946B0C0F931F93F2
:1009F000CF93DF93FB01238121FD03C08FEF9FEF96
:100A00002CC022FF16C046815781248135814217B0
:100A1000530744F4A081B1819D012F5F3F4F318383
:100A200020838C93268137812F5F3F4F3783268326
:100A300014C08B01EC01FB010084F185E02D0995C8
:100A4000892BE1F6D80116968D919C911797019606
:100A500017969C938E931697CE01DF91CF911F919D
:100A60000F910895A0E0B0E0E8E3F5E00C94550C98
:100A7000AE014B5F5F4FFA0161917191AF018091BF
:100A80003602909137020E949105E2E00C94710CBD
:100A90000F931F93CF93DF93E0913602F0913702CB
:100AA000238121FF1BC08C01D0E0C0E0F8018191BF
:100AB0008F016091360270913702DB011896ED913B
:100AC000FC911997882331F00995892B79F3DFEF91
:100AD000CFEFECCF8AE00995892B19F08FEF9FEFCC
:100AE00002C08D2F9C2FDF91CF911F910F91089500
:100AF000AEE0B0E0EEE7F5E00C94550C85E08C83B9
:100B00008B899C899A838983AE01495E5F4F6D8989
:100B10007E89CE0101960E940E092E96E2E00C9489
:100B2000710CABE0B0E0E7E9F5E00C94450C6C012A
:100B30007B018A01FC0117821682838181FFCCC16F
:100B4000CE0101963C01F6019381F70193FD859159
:100B500093FF81917F01882309F4BAC1853239F46A
:100B600093FD859193FF81917F01853229F4B60130
:100B700090E00E94F604E7CF912C212C312CFFE16C
:100B8000F315D8F08B3279F038F4803279F0833273
:100B9000A1F4232D20611DC08D3261F0803369F4F2
:100BA000232D216016C0832D8260382EE32DE46052
:100BB0003E2E2AC0F32DF8601DC037FC2DC020ED5D
:100BC000280F2A3040F08E32B9F436FC81C1232D33
:100BD0002064322E19C036FE06C08AE0989E200D91
:100BE0001124922E11C0EAE02E9E200D1124222EF7
:100BF000F32DF0623F2E08C08C3621F4832D8068DF
:100C0000382E02C0883641F4F70193FD859193FF99
:100C100081917F018111B3CF982F9F7D955493309F
:100C200028F40C5F1F4F9FE399830DC0833631F08A
:100C3000833771F0833509F059C021C0F8018081F4
:100C400089830E5F1F4F88248394912C530113C016
:100C50002801F2E04F0E511CF801A080B18036FE51
:100C600003C0692D70E002C06FEF7FEFC5010E94E5
:100C7000820B4C018201F32DFF773F2E16C0280115
:100C800022E0420E511CF801A080B18036FE03C064
:100C9000692D70E002C06FEF7FEFC5010E94700BFD
:100CA0004C01F32DF0683F2E820133FC1BC0822DD6
:100CB00090E088169906B0F4B60180E290E00E94B8
:100CC000F6042A94F4CFF50137FC859137FE819123
:100CD0005F01B60190E00E94F60421102A9421E001
:100CE000821A91088114910471F7E8C0843611F0DA
:100CF000893641F5F80137FE07C060817181828134
:100D000093810C5F1F4F08C060817181072E000C1A
:100D1000880B990B0E5F1F4FF32DFF763F2E97FF29
:100D200009C090958095709561957F4F8F4F9F4F2B
:100D3000F0683F2E2AE030E0A3010E94E40B882EE9
:100D4000861845C0853731F4232D2F7EB22E2AE038
:100D500030E025C0932D997FB92E8F36C1F018F45D
:100D6000883579F0B5C0803719F0883721F0B0C0E8
:100D7000E92FE061BE2EB4FE0DC0FB2DF460BF2E46
:100D800009C034FE0AC0292F2660B22E06C028E012
:100D900030E005C020E130E002C020E132E0F8019F
:100DA000B7FE07C060817181828193810C5F1F4F04
:100DB00006C06081718180E090E00E5F1F4FA3014B
:100DC0000E94E40B882E8618FB2DFF773F2E36FEFF
:100DD0000DC0232D2E7FA22E891458F434FE0BC093
:100DE00032FC09C0832D8E7EA82E05C0B82CA32C02
:100DF00003C0B82C01C0B92CA4FE0FC0FE01E80D41
:100E0000F11D8081803321F49A2D997EA92E09C08D
:100E1000A2FE06C0B394B39404C08A2D867809F06C
:100E2000B394A3FC11C0A0FE06C0B21488F4280C31
:100E3000922C9B180EC0B21460F4B60180E290E0D0
:100E40000E94F604B394F7CFB21418F42B1802C022
:100E5000982C212CA4FE10C0B60180E390E00E94E3
:100E6000F604A2FE17C0A1FC03C088E790E002C010
:100E700088E590E0B6010CC08A2D867859F0A1FE75
:100E800002C08BE201C080E2A7FC8DE2B60190E0D7
:100E90000E94F604891438F4B60180E390E00E94C1
:100EA000F6049A94F7CF8A94F301E80DF11D80813E
:100EB000B60190E00E94F6048110F5CF222009F4DB
:100EC00042CEB60180E290E00E94F6042A94F6CF6A
:100ED000F6018681978102C08FEF9FEF2B96E2E1AA
:100EE0000C94610C20FD09C0FC0123FD05C022FF0C
:100EF00002C07383628351834083089544FD17C009
:100F000046FD17C0AB01BC01DA01FB01AA0FBB1FF4
:100F1000EE1FFF1F1094D1F74A0F5B1F6E1F7F1F3C
:100F2000CB01BA01660F771F881F991F09C033E0F4
:100F300001C034E0660F771F881F991F3150D1F729
:100F4000620F711D811D911D08950F931F93CF9303
:100F5000DF938C01C8010E948D0BEC0197FD08C046
:100F60000E945C0B892BB1F7B801CE010E94CB0B1C
:100F7000CE01DF91CF911F910F9108958F929F9293
:100F8000AF92BF92EF92FF920F931F93CF93DF9395
:100F90008C01D62F7A01B22E0E948D0B9C01332733
:100FA0002B32310531F02D32310561F48B2D806803
:100FB000B82ED15011F480E068C0C8010E948D0B9A
:100FC00097FDF9CFCB2DCD7F2B2D207309F58033E5
:100FD000F9F4AA24AA94AD0E09F443C0C8010E94F2
:100FE0008D0B97FD3EC09C012F7D332728353105A1
:100FF00049F4C264D250A9F1C8010E948D0B97FF39
:1010000007C02FC0B6FE02C0C26001C0C261DA2DA7
:10101000812C912C540120ED280F283080F0C4FF42
:1010200004C0B8010E94CB0B19C02A3040F0C6FFA3
:10103000F8CF2F7D3FEE320F363098F727504C2FE8
:10104000C501B4010E947E074B015C01C260D15012
:1010500059F0C8010E948D0B97FFDDCFC1FD04C080
:10106000AACF812C912C5401C7FF08C0B094A09442
:1010700090948094811C911CA11CB11C2C2FB50153
:10108000A401C7010E94720781E0DF91CF911F91F7
:101090000F91FF90EF90BF90AF909F908F90089529
:1010A000A0E2B0E0E6E5F8E00C94480C5C01962E76
:1010B0007A01F9018E010F5F1F4F680180E2D801AC
:1010C0001D928A95E9F7D50113968C9080E090E007
:1010D000612C712C30E061E070E083FC259183FE8F
:1010E00021918F01522E211103C080E090E092C027
:1010F0002E3511F4009751F1432F50E0481759074E
:101100003CF42D3559F12D3219F4772009F103C043
:10111000772009F46AC0452D469546954695D60137
:10112000A40FB11D452D47708B0102C0000F111F88
:101130004A95E2F7A8015C91452B4C93651459F050
:10114000561410F45394E7CF5A94E5CF31E004C01D
:101150007724739401C0712C0196BFCF772019F0CA
:101160008E8180628E83311103C08824839417C0DE
:10117000F6019E012F5D3F4F8081809581932E1750
:101180003F07D1F7F2CFE114F10429F0D7018C9396
:10119000F70131967F019A94812C9920F9F0C501CD
:1011A0000E948D0B97FD18C0FC01FF2723E0F595E9
:1011B000E7952A95E1F7EC0DFD1D208130E0AC01AB
:1011C0004770552702C0359527954A95E2F720FDCF
:1011D000DACFB5010E94CB0B811087CFE114F10467
:1011E00011F0D7011C92C80115C0422F46954695B3
:1011F0004695D601A40FB11D422F47708B0102C046
:10120000000F111F4A95E2F7A8015C91452B4C9302
:10121000622EA2CFA096EFE00C94640CA0E0B0E0A8
:10122000E4E1F9E00C94480C6C01EB015A01FC017B
:1012300017821682512CF601E380FE01E3FC8591B2
:10124000E3FE8191182FEF01882309F4EEC090E0AE
:101250000E945C0B892B21F0C6010E94A507EBCFF1
:10126000153241F4FE01E3FC1591E3FE1191EF010B
:10127000153281F4C6010E948D0B97FDD4C0412F19
:1012800050E09C01332724173507A9F2B6010E94CC
:10129000CB0BCBC01A3239F4E3FC1591E3FE11916C
:1012A000EF0101E001C000E0F12C20ED210F2A3018
:1012B00080F402606F2D70E080E090E040E20E94D8
:1012C0007E07F62EFE01E3FC1591E3FE1191EF017E
:1012D000ECCF01FF03C0F11003C0A7C0FF24FA94B4
:1012E000183619F01C3651F010C0FE01E3FC1591C0
:1012F000E3FE1191EF01183641F408600460FE012D
:10130000E3FC1591E3FE1191EF01112309F48DC067
:10131000612F70E088E690E00E94650B892B09F44C
:1013200084C000FD07C0F50180809180C501029650
:101330005C0102C0812C912C1E3651F4F6014681CD
:10134000578160E070E0202FC4010E94720773CFC4
:101350001336A9F401FD02C0FF24F394C6010E94D4
:101360008D0B97FD60C08114910429F0F4018083F6
:10137000C40101964C01FA94F110F0CF50C01B3516
:1013800059F49E01A4016F2DC6010E945008EC0182
:10139000892B09F044C03EC0C6010E94A50797FDF5
:1013A00042C01F3661F128F4143639F1193651F173
:1013B00028C0133771F0153701F123C0811491044F
:1013C00029F0F4016082C40101964C01FA94FF20D7
:1013D00071F0C6010E948D0B3C0197FD08C00E9470
:1013E0005C0B892B59F3B601C3010E94CB0B81140E
:1013F0009104A9F0F401108212C0006203C00061E0
:1014000001C00064202FA4016F2DC6010E94BE07F9
:10141000811105C0F6018381807329F406C000FDA7
:101420000ACF539408CF552019F0852D90E002C0C3
:101430008FEF9FEFCDB7DEB7EFE00C94640C0F9306
:101440001F93CF93DF93869F8001879F100D969FF8
:10145000100D1124C8010E943B0AEC01009729F0ED
:10146000A80160E070E00E947B0BCE01DF91CF917C
:101470001F910F9108950F931F93CF93DF938230A5
:10148000910510F482E090E0E0913C02F0913D0281
:1014900020E030E0A0E0B0E0309719F140815181C8
:1014A0000281138148175907C8F08417950769F41A
:1014B000109731F012960C93129713961C9327C035
:1014C00000933C0210933D0222C02115310519F012
:1014D0004217530718F49A01BD01EF01DF01F8012B
:1014E000DBCF21153105F9F0281B390B24303105EC
:1014F00080F48A819B816115710521F0FB01938342
:10150000828304C090933D0280933C02FE01329698
:1015100044C0FE01E20FF31F8193919322503109E1
:10152000398328833AC020913A0230913B02232B21
:1015300041F4209102013091030130933B0220934A
:101540003A0220910001309101012115310541F449
:101550002DB73EB74091040150910501241B350B76
:10156000E0913A02F0913B02E217F307A0F42E1B40
:101570003F0B2817390778F0AC014E5F5F4F2417F7
:10158000350748F04E0F5F1F50933B0240933A02DD
:101590008193919302C0E0E0F0E0CF01DF91CF9121
:1015A0001F910F910895CF93DF93009709F481C0A5
:1015B000FC01329713821282A0913C02B0913D024D
:1015C000109781F420813181820F931F20913A027C
:1015D00030913B022817390751F5F0933B02E09315
:1015E0003A0267C0ED0120E030E0CE17DF0740F49B
:1015F0004A815B819E0141155105F1F0EA01F5CF69
:10160000D383C28340815181840F951FC817D907A6
:1016100059F488819981840F951F02969183808364
:101620008A819B81938382832115310529F4F0936C
:101630003D02E0933C023DC0E901FB83EA8349910E
:101640005991C40FD51FEC17FD0761F4808191817A
:10165000840F951F0296E901998388838281938183
:101660009B838A83E0E0F0E012968D919C91139722
:10167000009719F0FD01DC01F7CF8D919C91119736
:101680009D012E5F3F4F820F931F20913A023091B0
:101690003B022817390769F4309729F410923D026C
:1016A00010923C0202C013821282B0933B02A093BC
:1016B0003A02DF91CF91089591110C94420C80323F
:1016C00019F089508550C8F70895FC010590061659
:1016D00021F00020D9F7C00108953197CF01089576
:1016E000FC010590615070400110D8F780959095ED
:1016F0008E0F9F1F0895DC0101C06D934150504033
:10170000E0F70895FC016150704001900110D8F796
:10171000809590958E0F9F1F0895CF93DF93EC01D6
:101720002B8120FF33C026FF0AC02F7B2B838E81A5
:101730009F8101969F838E838A8190E029C022FF3A
:101740000FC0E881F9818081082E000C990B009769
:1017500019F420622B831AC03196F983E8830EC0F6
:10176000EA85FB85099597FF09C02B81019611F049
:1017700080E201C080E1822B8B8308C02E813F81F3
:101780002F5F3F4F3F832E83992702C08FEF9FEF3C
:10179000DF91CF910895FB01238120FF12C026FD28
:1017A00010C08F3F3FEF930761F082832F7D20644D
:1017B0002383268137812150310937832683992756
:1017C00008958FEF9FEF0895FA01AA27283051F16D
:1017D000203181F1E8946F936E7F6E5F7F4F8F4F62
:1017E0009F4FAF4FB1E03ED0B4E03CD0670F781FC1
:1017F000891F9A1FA11D680F791F8A1F911DA11DA6
:101800006A0F711D811D911DA11D20D009F46894DE
:101810003F912AE0269F11243019305D3193DEF686
:10182000CF010895462F4770405D4193B3E00FD03C
:10183000C9F7F6CF462F4F70405D4A3318F0495D27
:1018400031FD4052419302D0A9F7EACFB4E0A6950A
:101850009795879577956795BA95C9F7009761052C
:10186000710508959B01AC010A2E06945795479582
:1018700037952795BA95C9F7620F731F841F951F77
:10188000A01D08959927882708952F923F924F927F
:101890005F926F927F928F929F92AF92BF92CF9200
:1018A000DF92EF92FF920F931F93CF93DF93CDB709
:1018B000DEB7CA1BDB0B0FB6F894DEBF0FBECDBF81
:1018C00009942A88398848885F846E847D848C8452
:1018D0009B84AA84B984C884DF80EE80FD800C815B
:1018E0001B81AA81B981CE0FD11D0FB6F894DEBF3E
:1018F0000FBECDBFED010895F894FFCFFF083E0263
:1019000020002533752E2000544F54414C3A202599
:10191000750A000A0A4352454154494E47204E4534
:101920005720454E5452590A002020205B4E414D0D
:10193000455D203A20000A0A4348414E47494E4738
:1019400020454E5452590A0020205B454E545259AE
:101950005D203A200025686875002020205B434FF9
:101960004E54454E545D203A20000A0A52454D4FD0
:1019700056494E4720454E5452590A000A41564195
:10198000494C41424C4520434F4D4D414E44533A02
:101990000A004E45572020202043524541544520FF
:1019A0004E455720454E545259004C49535420201F
:1019B000204C49535420414C4C20454E54524945EB
:1019C0005300454449542020204544495420414E69
:1019D00020454E5452590044454C20202020524569
:1019E0004D4F564520414E20454E5452590A004E07
:1019F0004557004C4953540044454C004544495414
:101A00000048454C50000A52454144590A0A000A10
:101A10005B434F4D4D414E445D203A20000A0A453C
:101A200052524F5220285345452048454C502900DA
:00000001FF
