:10000000C4EF3CF00000000000EF00F00000000032
:0A0010000000000000000000F3D71C
:10001C000900F5CFE6FF0006FBE10106F9E112004D
:10002E0010EE15F0010E006E010E016E2C0EF66E26
:0E003E00000EF76E000EF86E0EEC00F01200D1
:1079880017EC00F0330E566EA1DA670E566E720EC3
:10799800576E00DA005202E0B7D801D00DDBFFD7EE
:107B1000586A596A5A6A5B6A5C6A5D6A5850400AD8
:107B200017E1155201E194D95AC05FF05BC060F0D3
:107B30005CC061F05DC062F0160E636E000E646E94
:107B400049D9586A400E5A26000E5B225C225D22FB
:107B5000630E5E6EA7D9B6D9005201E1FCD794D965
:107B600000C059F05950520A01E12ADA400E590278
:107B7000F3CF00F0F4CF01F000505A2601505B2201
:107B8000000E01BEFF0E5C225D22790E5E6E8AD968
:107B900099D9005201E1FCD777D900C057F0780E8F
:107BA0005E6E80D98FD9005201E1FCD76DD900C03B
:107BB00056F0160EE16E000EE26E5850E126D8B077
:107BC000E22A57C0E6FF582A160EE16E000EE26E5A
:107BD0005850E126D8B0E22A56C0E6FF582A9ED770
:027BE000120091
:107D48000D0E0C6EFB0E0D6E0D2EFED70C2EFCD7F5
:067D580000000000120013
:107D9C00586AD4DF56C05EF07FD8D0DF582A5850CE
:107DAC00FF0A02E1006A08D069D80050571803E1B5
:0A7DBC00010E006E01D0EDD7120099
:107DD400F2CF65F05FC0F6FF60C0F7FF61C0F8FF47
:107DE400A68EA69CA684A688F29E550EA76EAA0E01
:107DF400A76EA682F28E0A0063C0E9FF64C0EAFFA0
:107E0400676A020E675C14E2666A200E665C05E22D
:107E1400EECFF5FF0F00662AF8D7A68EA69CA6849F
:107E2400F29E550EA76EAA0EA76EA682672AE9D700
:0A7E3400F28EA69465C0F2FF120062
:107E5000C00E5F6E7F0E606E000E616E626E160E5B
:107E6000636E000E646EB6DFC40E166EEF0E176EF4
:0E7E70003C0E186EF00E196E010E156E12000B
:107E8800AECF5EF09E9AABA202D0AB98AB885EC034
:047E980000F01200E4
:0C7EA400ACB201D0FDD75EC0ADFF1200F3
:0A7EC400000E9EBA010E006E1200BF
:107ED400900EAB6E260EAC6E948E949C9EAA03D02C
:0C7EE400AECF57F0FBD756C0AFFF120026
:027FC0001200AD
:01002C0000D3
:020000040030CA
:0D000100021F1EFF8381FF0FC00FE00F40A4
:00000001FF
