:1000000046C098C15FC05EC05DC05CC05BC05AC0E6
:1000100059C058C057C056C055C054C053C052C034
:1000200051C050C04FC009021200010100801409E4
:10003000040000000000000012011001FF00000891
:10004000C016DC0500010102030110037600310037
:100050003300330037002E003000220354006F00BD
:10006000740061006C006C0079004E006F00740039
:100070004200610064005500530042000E03680016
:10008000780070002E0069006F0004030904112439
:100090001FBECFE5D4E0DEBFCDBF10E0A0E6B0E0EC
:1000A000E6EDFBE002C005900D92A439B107D9F747
:1000B00020E0A4E9B0E001C01D92A73FB207E1F73C
:1000C0002FD387C59DCFCF93DF936091D900635025
:1000D00067FDB0C08091D600CCE0D0E0C81BD1094C
:1000E000C352DF4F8091D5008D3209F092C0683045
:1000F00009F09EC083EC8093C9008AE5809361007B
:10010000109294008881807639F0CE0140D2982FE9
:100110008F3F09F46DC073C09A811092D20089811B
:10012000811106C01092D30022ED30E092E05BC056
:10013000853019F49093DA0048C0863009F03FC04A
:100140008B81813019F488E390E004C0823041F45F
:1001500086E290E09093D8008093D70092E12BC084
:10016000833041F5911108C08AE890E09093D8005F
:100170008093D70094E01FC0913041F48CE790E069
:100180009093D8008093D7009EE015C0923041F440
:100190008AE590E09093D8008093D70092E20BC05C
:1001A000933041F48AE490E09093D8008093D70094
:1001B00090E101C090E080E48093940020C08830FA
:1001C00079F0893031F49093DC0022ED30E090E05A
:1001D0000AC091E08A3009F090E022ED30E003C0DF
:1001E0002CED30E091E03093D8002093D70007C089
:1001F000888187FD9E8180E88093940007C08F816D
:10020000811104C08E81891708F4982F90936000A3
:100210000FC08091940087FF0BC0CE0135D28F3F75
:1002200021F48EE18093610003C08111109260007F
:100230001092D9008091610084FF4FC080916000CE
:100240008F3F09F44AC0C82F893008F0C8E08C1BE2
:10025000809360009091C90088E889278093C90045
:10026000CC2351F13091940037FF08C06C2F8AECF9
:1002700090E0DAD1C82F893050F51EC08091D700A8
:100280009091D8002C2F280FAAECB0E0FC0136FF8B
:1002900006C034913D9331962E13FBCF04C03191AB
:1002A0003D932E13FCCF01962FEF2C0F820F911D43
:1002B0009093D8008093D7006C2F8AEC90E036D0D2
:1002C000CC5FCC3041F08FEF8093600004C08FEFA3
:1002D00080936000CEE1C093610084E196B3937097
:1002E00031F48150D9F71092DA001092D400DF91E6
:1002F000CF91089585B7826085BF8BB780648BBF2F
:100300000895A82FB92F80E090E041E050EA609571
:1003100030E009C02D9182279795879510F08427AA
:100320009527305EC8F36F5FA8F30895EADF8D93D9
:100330009D930895CF93CFB7CF93C395B09BE9F723
:10034000B09B09C0B09B07C0B09B05C0B09B03C069
:10035000B09B01C0A1C0DF93C091D600DD27C3527E
:10036000DF4FB09B02C0DF91EBCF2F930F931F9312
:1003700006B32FEF00FB20F94F933F9316B34FEFD7
:10038000012700FB21F93BE031C04E7F012F16B35E
:10039000216028C0102F4D7F2260000006B329C0C5
:1003A0004B7F2460012F000016B32BC016B3477F8C
:1003B00028602AC04F7E06B320612CC04F7D16B343
:1003C00020622FC04F7B06B3206432C0422706B3A1
:1003D00049934FEF0000102710FB20F916B313705C
:1003E000C9F1297F91F2012700FB21F906B3237F90
:1003F00089F2315058F1102710FB22F916B3277EED
:1004000079F2012700FB23F92F7C81F206B3102734
:1004100010FB24F92F7971F200C016B3012700FBFD
:1004200025F92F7359F200C006B3102710FB26F9E7
:10043000223040F200C016B3012700FB27F9243018
:1004400028F64F77206816B30000F9CF10E41ABFE2
:10045000002717C03B503195C31BD04010E41ABF92
:100460000881033CE9F00B34D9F02091D4001981C4
:10047000110F1213EDCF093641F10D3211F0013E8B
:1004800039F70093DB003F914F911F910F912F910E
:10049000DF91CAB7C6FD51CFCF91CFBFCF9118958D
:1004A0002091DB00222379F31091D900112311F55B
:1004B000343012F13093D9002093D5001091D6003A
:1004C0003BE0311B3093D60017C00091D9000130BA
:1004D0008CF40AE53091610034FD10C00093610096
:1004E000C9ECD0E00FC02795A8F45150A9F4220F11
:1004F0000000F9CF4AE503C042ED01C0432FC4E13B
:10050000D0E032E017B31360C09A17BB08B320E401
:1005100013E05F93012756E008BB279520F4515064
:1005200021F4220FF9CF012756E000003B5A08BB07
:10053000D0F2279528F4515029F4220F0000F9CF6A
:10054000012756E0279508BB20F4515021F4220FD3
:10055000F9CF012756E02991332308BB21F60C7F00
:100560001091DA00110FC651D04008BB11F0109362
:10057000D40010E41ABF016017B31C7F402F4C7FDA
:100580005F9100C000C008BB17BB48BB7CCFCF93B6
:10059000DF93FC019181923009F52481358120316E
:1005A0003105F0F5D901AA0FBB1FA20FB31FAB563F
:1005B000BF4F12968C918823A1F19093C80010929E
:1005C000C6008093C5004681578190E048175907BF
:1005D00010F44093C5002093C70020C0913001F56E
:1005E0002481358120313105D8F49093C8001092D0
:1005F000C600668177816093C5002093C700E9013A
:10060000CC0FDD1F2C0F3D1FE901CB56DF4F6A8356
:10061000772788819981ADD0998388838FEF01C036
:1006200080E0DF91CF910895CF93DF932091C500B3
:10063000261708F4622F261B2093C5007091C8006E
:100640002091C70030E04091C600582FDC01F9012D
:10065000EE0FFF1F2E0F3F1FF901EB56FF4F8A2FA2
:10066000851B861758F4723039F4C081D181C40FCC
:10067000D11D88818C934F5F1196F1CF4093C600B6
:10068000862FDF91CF9108951F93CF93DF93209111
:10069000C500261708F4622F422F461B4093C50061
:1006A0002091C70030E05091C600782FDC01152F53
:1006B000181BF901EE0FFF1F2E0F3F1FF901EB561C
:1006C000FF4F912F9A0F8A2F871B861738F48D9131
:1006D000C081D181C90FD11D8883F3CF650F60938D
:1006E000C60081E0411180E0DF91CF911F91089514
:1006F0008FEF84BBA8952FEB84ED91E021508040D3
:100700009040E1F700C00000A99A2FEB84ED91E042
:10071000215080409040E1F700C00000A998EACF46
:100720009CE088E10FB6F894A89581BD0FBE91BDFD
:1007300084B3836084BB15BADDDDB89A80E0815054
:1007400041F0A895E7EBFBE03197F1F700C000001E
:10075000F6CFB8987894C0E0D0E011E0A895B3DC6B
:10076000CE019F71892B19F485B3812785BB219711
:10077000F5CFA0E0B0E0EEEBF3E0F8C1EC010097BC
:1007800019F4CB01C2D0B4C0FC01E60FF71F9C01E5
:1007900022503109E217F30708F4A8C0D9010D91DE
:1007A0001C91119706171707A8F00530110508F4DA
:1007B0009BC0C80104978617970708F495C002509C
:1007C0001109061B170B019311936D937C93CF01B5
:1007D00031D18AC05B01A01AB10A4C01800E911E72
:1007E000A091F500B091F60040E050E0E12CF12C32
:1007F000109709F44AC0A815B905D1F56D907C9001
:100800001197630182E0C80ED11CCA14DB0480F189
:10081000A3014A195B096A0182E0C80ED11C129635
:10082000BC9012971396AC91B5E0CB16D10440F072
:10083000B282A38351834083D9016D937C930AC014
:100840000E5F1F4FC301800F911FF90191838083B9
:10085000EB2DFA2FE114F10431F0D7011396FC933C
:10086000EE93129741C0F093F600E093F5003CC080
:100870008D919C9111974817590708F4AC017D019F
:1008800012960D90BC91A02DB3CF8091F300909162
:10089000F40088159905E1F446175707C8F48091CC
:1008A0008E0090918F00009741F48DB79EB74091D4
:1008B000920050919300841B950BE817F907B0F450
:1008C000F093F400E093F300F901718360830CC0AE
:1008D000CB011BD07C01009749F0A801BE010CD0D0
:1008E000CE01A8D0C70104C0CE0102C080E090E0D4
:1008F000CDB7DEB7EEE056C1FB01DC0102C00190CE
:100900000D9241505040D8F70895CF93DF93823035
:10091000910510F482E090E0E091F500F091F6008E
:1009200020E030E0C0E0D0E0309711F1408151810B
:1009300048175907C0F04817590761F4828193811D
:10094000209719F09B838A832BC09093F6008093A5
:10095000F50026C02115310519F04217530718F488
:100960009A01BE01DF01EF010280F381E02DDCCFAF
:100970002115310509F1281B390B2430310590F47C
:1009800012968D919C9113976115710521F0FB01D1
:100990009383828304C09093F6008093F500FD0159
:1009A000329644C0FD01E20FF31F819391932250D0
:1009B00031092D933C933AC02091F3003091F4001B
:1009C000232B41F420919000309191003093F4005A
:1009D0002093F30020918E0030918F002115310576
:1009E00041F42DB73EB74091920050919300241BE3
:1009F000350BE091F300F091F400E217F307A0F457
:100A00002E1B3F0B2817390778F0AC014E5F5F4F64
:100A10002417350748F04E0F5F1F5093F4004093A2
:100A2000F3008193919302C0E0E0F0E0CF01DF9109
:100A3000CF9108950F931F93CF93DF93009709F4FD
:100A40008CC0FC013297138212820091F500109144
:100A5000F6000115110581F420813181820F931F69
:100A60002091F3003091F4002817390779F5F093BD
:100A7000F400E093F30071C0D80140E050E0AE17FD
:100A8000BF0750F412962D913C911397AD0121159B
:100A9000310509F1D901F3CF9D01DA0133832283B6
:100AA00060817181860F971F8217930769F4EC01AB
:100AB00028813981260F371F2E5F3F4F31832083D6
:100AC0008A819B8193838283452B29F4F093F600DE
:100AD000E093F50042C01396FC93EE931297ED015C
:100AE000499159919E01240F351FE217F30771F4C4
:100AF00080819181840F951F029611969C938E930D
:100B00008281938113969C938E931297E0E0F0E09C
:100B1000D80112968D919C911397009719F0F801C6
:100B20008C01F6CF8D919C9198012E5F3F4F820FE3
:100B3000931F2091F3003091F4002817390769F4CE
:100B4000309729F41092F6001092F50002C013823B
:100B500012821093F4000093F300DF91CF911F9164
:100B60000F9108952F923F924F925F926F927F92D2
:100B70008F929F92AF92BF92CF92DF92EF92FF92AD
:100B80000F931F93CF93DF93CDB7DEB7CA1BDB0B59
:100B90000FB6F894DEBF0FBECDBF09942A883988FE
:100BA00048885F846E847D848C849B84AA84B98405
:100BB000C884DF80EE80FD800C811B81AA81B98111
:100BC000CE0FD11D0FB6F894DEBF0FBECDBFED0125
:060BD0000895F894FFCF28
:100BD600FF5A666C61673A206878707B63656E734E
:100BE6006F7265642E2E2E2E2E2E2E2E2E2E2E2E2D
:100BF6002E2E2E2E2E2E2E2E2E2E2E2E7D0000004A
:040C0600F7002000D3
:00000001FF
