:100000000C945C000C9479000C9479000C947900A9
:100010000C9479000C9479000C9479000C9479007C
:100020000C9479000C9479000C9479000C9479006C
:100030000C9479000C9479000C9479000C9479005C
:100040000C941E010C9479000C9479000C947900A6
:100050000C9479000C9479000C9479000C9479003C
:100060000C9479000C947900000000080002010053
:100070000003040700000000000000000000000072
:10008000250028002B0000000000240027002A0083
:10009000040404040404040402020202020203032E
:1000A0000303030301020408102040800102040836
:1000B000102001020408102011241FBECFEFD8E049
:1000C000DEBFCDBF11E0A0E0B1E0E8EEF4E002C099
:1000D00005900D92A031B107D9F721E0A0E1B1E080
:1000E00001C01D92A931B207E1F70E9468010C948A
:1000F00072020C94000090E0FC01E859FF4F24913B
:10010000FC01EC55FF4F3491FC01E057FF4FE491A7
:10011000EE23C9F0222339F0233001F1A8F4213075
:1001200019F1223029F1F0E0EE0FFF1FE458FF4FE4
:10013000A591B4918FB7F894EC91611126C03095D8
:100140003E233C938FBF08952730A9F02830C9F093
:10015000243049F7809180008F7D03C0809180001A
:100160008F7780938000DFCF84B58F7784BDDBCF1E
:1001700084B58F7DFBCF8091B0008F778093B000E6
:10018000D2CF8091B0008F7DF9CF3E2BDACF3FB731
:10019000F8948091150190911601A0911701B091EA
:1001A000180126B5A89B05C02F3F19F00196A11D87
:1001B000B11D3FBFBA2FA92F982F8827BC01CD01B1
:1001C000620F711D811D911D42E0660F771F881F10
:1001D000991F4A95D1F708958F929F92AF92BF923F
:1001E000CF92DF92EF92FF924B015C010E94C70019
:1001F0006B017C010E94C7006C197D098E099F0963
:10020000683E734081059105A8F321E0821A9108A8
:10021000A108B10888EEC80E83E0D81EE11CF11CCD
:1002200081149104A104B10429F7FF90EF90DF90AD
:10023000CF90BF90AF909F908F9008951F920F9294
:100240000FB60F9211242F933F938F939F93AF93E9
:10025000BF938091110190911201A0911301B0916F
:1002600014013091100123E0230F2D3758F501962A
:10027000A11DB11D209310018093110190931201D3
:10028000A0931301B0931401809115019091160170
:10029000A0911701B09118010196A11DB11D809385
:1002A000150190931601A0931701B0931801BF9107
:1002B000AF919F918F913F912F910F900FBE0F9013
:1002C0001F90189526E8230F0296A11DB11DD2CFCD
:1002D000789484B5826084BD84B5816084BD85B521
:1002E000826085BD85B5816085BD80916E0081602D
:1002F00080936E00109281008091810082608093D3
:1003000081008091810081608093810080918000D4
:100310008160809380008091B10084608093B100FF
:100320008091B00081608093B00080917A008460F9
:1003300080937A0080917A00826080937A00809125
:100340007A00816080937A0080917A00806880933F
:100350007A001092C10022E030E0F901EC55FF4F25
:100360004491F901E057FF4F8491882399F090E080
:10037000880F991FFC01EA57FF4FA591B491FC012A
:10038000E458FF4F859194918FB7F894EC91E42B4A
:10039000EC938FBF2F5F3F4F2A303105F1F650E4C9
:1003A000952E6FE0E62E61E0F62E70E0C72E70E02D
:1003B000D72E61E089E00E947B00C2E068EC70E02B
:1003C00080E090E00E94EC0061E08C2F0E947B00B6
:1003D000CF5FC93099F768EE73E080E090E00E944B
:1003E000EC0090927C0080917A00806480937A0087
:1003F00080917A0086FDFCCF909178008091790001
:10040000892798278927092E000CAA0BBB0B00E02F
:1004100011E0E8012991FE013197282720839C01F2
:1004200021703327B695A79597958795232B11F0C3
:100430002DEA9227EC16FD0669F7C017D10709F4DB
:100440004AC0F80181908F01A82CB12C92E0792E3E
:1004500060E0872D0E947B007394FAE07F12F8CF52
:1004600080FE04C061E089E00E947B0081FC04C042
:1004700061E082E00E947B0082FE04C061E083E0D4
:100480000E947B0083FC04C061E084E00E947B004A
:1004900084FC04C061E085E00E947B0085FE04C00E
:1004A00061E086E00E947B0086FE04C061E087E098
:1004B0000E947B00AA0CAB2CAA1CBB08AB2821F421
:1004C00061E088E00E947B0064EF71E080E090E0F2
:1004D0000E94EC00B2CFC114D10409F46ACF0E948B
:0804E000000067CFF894FFCF84
:1004E800696374667B52454441435445447D00002A
:00000001FF
