:100000000C9461000C947E000C947E000C947E0095
:100010000C947E000C947E000C947E000C947E0068
:100020000C947E000C947E000C947E000C947E0058
:100030000C947E000C947E000C947E000C947E0048
:100040000C9488010C947E000C947E000C947E002D
:100050000C947E000C947E000C947E000C947E0028
:100060000C947E000C947E00000000002400270009
:100070002A0000000000250028002B0000000000DE
:1000800023002600290004040404040404040202DA
:100090000202020203030303030301020408102007
:1000A0004080010204081020010204081020000012
:1000B0000008000201000003040700000000000027
:1000C000000011241FBECFEFD8E0DEBFCDBF11E08E
:1000D000A0E0B1E0E2E8F5E002C005900D92AC319D
:1000E000B107D9F721E0ACE1B1E001C01D92AA331C
:1000F000B207E1F70E94D2010C94BF020C940000F9
:10010000833081F028F4813099F08230A9F008958D
:100110008730A9F08830C9F08430B1F48091800034
:100120008F7D03C0809180008F7780938000089539
:1001300084B58F7784BD089584B58F7DFBCF809182
:10014000B0008F778093B00008958091B0008F7DCC
:10015000F9CFCF93DF93282F30E0F901E255FF4F1D
:100160008491F901E656FF4FD491F901EA57FF4F08
:10017000C491CC23A1F081110E948000EC2FF0E00B
:10018000EE0FFF1FE458FF4FA591B491EC91ED23C2
:1001900081E090E009F480E0DF91CF91089580E064
:1001A00090E0FACF1F93CF93DF93282F30E0F9012F
:1001B000E255FF4F8491F901E656FF4FD491F901C2
:1001C000EA57FF4FC491CC23A9F0162F81110E944A
:1001D0008000EC2FF0E0EE0FFF1FEE58FF4FA591CF
:1001E000B4918FB7F894EC91111108C0D095DE232B
:1001F000DC938FBFDF91CF911F910895DE2BF8CF55
:10020000CF93DF9390E0FC01E656FF4F24918A578D
:100210009F4FFC0184918823D1F090E0880F991FB3
:10022000FC01E859FF4FA591B491FC01EE58FF4F36
:10023000C591D491623071F49FB7F8943C91822FAC
:10024000809583238C93E8812E2B28839FBFDF9199
:10025000CF9108958FB7F894EC912E2B2C938FBFEC
:10026000F6CF3FB7F8948091210190912201A0919F
:100270002301B091240126B5A89B05C02F3F19F09A
:100280000196A11DB11D3FBFBA2FA92F982F882716
:10029000BC01CD01620F711D811D911D42E0660FF1
:1002A000771F881F991F4A95D1F708958F929F92C3
:1002B000AF92BF92CF92DF92EF92FF924B015C011F
:1002C0000E9431016B017C010E9431016C197D0992
:1002D0008E099F09683E734081059105A8F321E0CE
:1002E000821A9108A108B10888EEC80E83E0D81ED2
:1002F000E11CF11C81149104A104B10429F7FF90C1
:10030000EF90DF90CF90BF90AF909F908F90089527
:100310001F920F920FB60F9211242F933F938F933A
:100320009F93AF93BF9380911D0190911E01A09167
:100330001F01B091200130911C0123E0230F2D37C4
:1003400058F50196A11DB11D20931C0180931D013C
:1003500090931E01A0931F01B09320018091210171
:1003600090912201A0912301B09124010196A11D39
:10037000B11D8093210190932201A0932301B0939A
:100380002401BF91AF919F918F913F912F910F9039
:100390000FBE0F901F90189526E8230F0296A11DFF
:1003A000B11DD2CF789484B5826084BD84B581605C
:1003B00084BD85B5826085BD85B5816085BD809130
:1003C0006E00816080936E001092810080918100A8
:1003D00082608093810080918100816080938100A0
:1003E000809180008160809380008091B100846062
:1003F0008093B1008091B00081608093B0008091C3
:100400007A00846080937A0080917A008260809381
:100410007A0080917A00816080937A0080917A00DE
:10042000806880937A001092C10061E08AE00E94A7
:10043000000161E08BE00E94000158E1E52E51E0EF
:10044000F52EC4E1D1E062E089910E940001F7013C
:1004500011917F0161E0812F0E94000161E0812FF5
:100460000E94D200F1E0C831DF0769F729E3A22E2C
:1004700021E0B22E05E211E034E1732E40E0842E3B
:1004800040E0942E98E1E92E91E0F92EC0E0F701CA
:1004900061907F0160E0862D0E94D20084E1C82E29
:1004A00081E0D82ED0E0F60151906F01852D0E9499
:1004B000A900892BB9F4852D0E94A900892BD9F3B5
:1004C00080913901E82FF0E0EB5DFE4F9D2F9C0FEE
:1004D00090838F5F8093390162E370E080E090E069
:1004E0000E945601DF5FD430F1F661E0862D0E9454
:1004F000D200CC5FC03159F680913901843131F599
:10050000E5E2F1E0A0E0B1E091918D91981729F139
:10051000C5E061E08BE00E94D20064EF71E080E012
:1005200090E00E94560160E08BE00E94D20064EFF0
:1005300071E080E090E00E945601C15051F71092A6
:100540003901F801872D11928A95E9F781149104F8
:1005500009F498CF0E94000095CFAE16BF06A1F611
:1005600061E08AE00E94D20060E177E280E090E002
:100570000E94560160E08AE00E94D200E0CFF89429
:02058000FFCFAB
:100582000D050F040C0009070D0709040508060DE7
:0C0592000E05050F09080706050403020A
:00000001FF
