:100000000C9462000C9456070C9483070C948A009D
:100010000C948A000C948A000C948A000C948A0038
:100020000C948A000C948A000C948A000C948A0028
:100030000C948A000C948A000C948A000C948A0018
:100040000C94B0070C948A000C948A000C948A00DB
:100050000C948A000C948A000C948A000C948A00F8
:100060000C948A000C948A000000000024002700F1
:100070002A0000000000250028002B0000000000DE
:1000800023002600290004040404040404040202DA
:100090000202020203030303030301020408102007
:1000A0004080010204081020010204081020000012
:1000B0000007000201000003040600000000000029
:1000C0000000220111241FBECFEFD8E0DEBFCDBF5C
:1000D00013E0A0E0B1E0E4E8F5E102C005900D9284
:1000E000A432B107D9F713E0A4E2B3E001C01D9236
:1000F000AE36B107E1F710E0C4ECD0E004C02297BF
:10010000FE010E94BC0AC23CD107C9F70E94180A2E
:100110000C94ED000C940000A0E0B0E0E2E9F0E007
:100120000C948B0AEC01A880B980CA80DB80A114F2
:10013000B104C104D10441F484E2A82E89EDB82EA3
:100140008BE5C82E87E0D82EC601B5012DE133EF2F
:1001500041E050E00E94680A27EA31E440E050E0C4
:100160000E94270A7B018C01C601B5012DE133EF06
:1001700041E050E00E94680ACA01B9012CEE34EF58
:100180004FEF5FEF0E94270A6E0D7F1D801F911FAA
:1001900097FF04C061507040804090486883798325
:1001A0008A839B839B01AC015F77B901CA01CDB7FC
:1001B000DEB7EAE00C94A70A0E948C00089586ED51
:1001C00092E00E948C0008956093D6027093D7024B
:1001D0008093D8029093D9020895F8940C94C00AA1
:1001E000FC0120E030E055E040E280812F30310515
:1001F00011F4962F01C091818630B1F087301CF444
:100200008530A9F40AC0873089F0803281F49530B6
:1002100011F080E207C086E005C0903211F085E061
:1002200001C087E0808303C0508301C040832F5FFB
:100230003F4F319620313105C1F6089581E080931A
:100240005B030895CF92EF920F9384E293E06BE00B
:1002500049E026E005E054E0E52E33E0C32E0E949D
:10026000FA060F91EF90CF9008957F928F929F9210
:10027000AF92BF92CF92DF92EF92FF920F931F93B4
:10028000CF93DF93EB014A0159017980FA01C180D4
:10029000893088F48530D8F48230D9F0833030F456
:1002A000882309F4A4C08130E9F40FC0833099F0A9
:1002B0008430C1F499C08A3071F08A3008F494C057
:1002C0008B3059F08C3071F40BC081E014C093E096
:1002D00005C082E010C083E00EC091E080E203C060
:1002E00092E0FCCF90E09983DD24F0E27F1621F0CC
:1002F000DD24D39401C0DD24803291F0F4018183A8
:100300008D2D90E020E030E0F0E2CF1611F021E0FA
:1003100030E0822B932BDD24892B11F0DD24D39444
:1003200040E1A41647E2B40618F0F5E0EF2E18C03D
:1003300088EEA81683E0B80618F0E4E0EE2E10C0B0
:1003400094E6A916B10418F073E0E72E09C0EAE0BC
:10035000AE16B10418F4EE24E39402C062E0E62E77
:10036000188AF401108A00E110E00E1911090C0F2F
:100370001D1FF801F080108284E293E060E040E00D
:100380000E940D0684E293E0BE010E94F309F80189
:10039000F08284E293E060E041E00E940D0684E296
:1003A00093E0B4010E94F30960E16E1984E293E0E6
:1003B00040E00E940D0684E293E0B5014AE050E07F
:1003C0000E94E2097982F401C1828D2DDF91CF91E3
:1003D0001F910F91FF90EF90DF90CF90BF90AF9063
:1003E0009F908F907F9008959EE284E07CCF80E282
:1003F00082CF1F93CF93DF93C0E0D0E011E0AE0136
:1004000044525D4F84E293E0612F0E94DB05289601
:100410001F5F1830A1F780E090E020E2FC01E75C6C
:10042000FC4F2083FC01E65BFC4F2083019680316A
:100430009105A1F7DF91CF911F9108951F938091AE
:100440005F03882309F07CC080915E03882311F04C
:1004500080E002C08091DB0220915C0330915D035B
:10046000B3E036952795BA95E1F769E373E04AE47E
:1004700053E00E94350180915E03882309F442C055
:1004800084E293E060E040E00E940D0684E293E0A5
:1004900060E071E00E94F30964EF71E080E090E0B9
:1004A0000E94F80784E293E00E943C0684E293E015
:1004B0006EE071E00E94F30964EF71E080E090E08B
:1004C0000E94F80784E293E00E943C0684E293E0F5
:1004D0006AE171E00E94F30964EF71E080E090E06E
:1004E0000E94F80784E293E00E943C0684E293E0D5
:1004F00069E271E00E94F30964EF71E080E090E04E
:100500000E94F8076AEF70E080E090E00E94F80730
:1005100080915E0311E0812780935E0380915B03ED
:10052000882309F455C20E94F9011093DB0210934D
:100530005F0310925B0310925D0310925C0348C24C
:1005400080916003813011F060E201C065E08AE4CF
:1005500093E00E94F00080916003823011F060E22D
:1005600001C065E089E393E00E94F0008091DA0227
:1005700081508093DA02882339F5809160038823C3
:10058000C1F463E070E080E090E00E94F60961153C
:1005900071058105910511F081E001C082E0809331
:1005A00060036AE070E080E090E00E94F6096E5F10
:1005B00009C0109260036AE070E080E090E00E9461
:1005C000F609665F6093DA0280915B03882349F045
:1005D0008091DB02833018F483E08093DB02109279
:1005E0005B0320915C0330915D03A3E03695279572
:1005F000AA95E1F78091DB0269E373E04AE453E0F6
:100600000E943501882319F010925F03DBC190919D
:10061000DB02923011F09A3011F481E009C0892F89
:100620008550833040F480914B03803221F08BE081
:100630008093DB020DC09B3040F080914B038032F1
:1006400011F487E0F5CF9C3091F39F5F9093DB022C
:1006500080915C0390915D03019690935D0380937C
:100660005C038D52914008F4A4C184E293E00E949F
:100670003C0684E293E068E371E00E94F30964EFD2
:1006800071E080E090E00E94F80784E293E00E942D
:100690003C0684E293E06AE471E00E94F30964EFAF
:1006A00071E080E090E00E94F80784E293E00E940D
:1006B0003C0684E293E06AE571E00E94F30964EF8E
:1006C00071E080E090E00E94F80784E293E00E94ED
:1006D0003C0684E293E06BE671E00E94F30964EF6C
:1006E00071E080E090E00E94F80784E293E00E94CD
:1006F0003C0684E293E06DE771E00E94F30964EF49
:1007000071E080E090E00E94F80784E293E00E94AC
:100710003C0684E293E06EE871E00E94F30964EF26
:1007200071E080E090E00E94F80784E293E00E948C
:100730003C0684E293E06FE971E00E94F30964EF04
:1007400071E080E090E00E94F80784E293E00E946C
:100750003C0684E293E06FEA71E00E94F30964EFE3
:1007600071E080E090E00E94F80784E293E00E944C
:100770003C0684E293E060EC71E00E94F30964EFD0
:1007800071E080E090E00E94F80784E293E00E942C
:100790003C0684E293E062ED71E00E94F30964EFAD
:1007A00071E080E090E00E94F80784E293E00E940C
:1007B0003C0684E293E063EE71E00E94F30964EF8B
:1007C00071E080E090E00E94F80784E293E00E94EC
:1007D0003C0684E293E065EF71E00E94F30964EF68
:1007E00071E080E090E00E94F80784E293E00E94CC
:1007F0003C0684E293E066E072E00E94F30964EF55
:1008000071E080E090E00E94F80784E293E00E94AB
:100810003C0684E293E068E172E00E94F30964EF31
:1008200071E080E090E00E94F80784E293E00E948B
:100830003C0684E293E069E272E00E94F30964EF0F
:1008400071E080E090E00E94F80784E293E00E946B
:100850003C0684E293E06BE372E00E94F30964EFEC
:1008600071E080E090E00E94F80784E293E00E944B
:100870003C0684E293E06BE671E00E94F30964EFCA
:1008800071E080E090E00E94F80784E293E00E942B
:100890003C0684E293E06CE472E00E94F30964EFAA
:1008A00071E080E090E00E94F80784E293E00E940B
:1008B0003C0684E293E06EE572E00E94F30964EF87
:1008C00071E080E090E00E94F80784E293E00E94EB
:1008D0003C0684E293E061E772E00E94F30964EF72
:1008E00071E080E090E00E94F80784E293E00E94CB
:1008F0003C0684E293E062E872E00E94F30964EF50
:1009000071E080E090E00E94F80784E293E00E94AA
:100910003C0684E293E064E972E00E94F30964EF2C
:1009200071E080E090E00E94F80784E293E00E948A
:100930003C0684E293E067EA72E00E94F30964EF08
:1009400071E080E090E00E94F80784E293E00E946A
:100950003C0684E293E067EA72E00E94F30964EFE8
:1009600071E080E090E00E94F80784E293E00E944A
:100970003C0684E293E067EB72E00E94F30964EFC7
:1009800071E080E090E00E94F80784E293E00E942A
:100990003C0684E293E069EC72E00E94F30964EFA4
:1009A00071E080E090E00E94F80784E293E00E940A
:1009B0003C0660E080914D03803209F461E081E003
:1009C0000E94D50864E670E080E090E00E94F8079D
:1009D0001F9108958AE061E00E9496088AE060E035
:1009E0000E94D5088CE061E00E9496088CE060E0EF
:1009F0000E94D50882E060E00E94960882E061E0F3
:100A00000E94D50881E061E00E94960881E061E0E3
:100A10000E94D50880E06EE171E042E050E00E9463
:100A200033070E94F90184E293E060E142E020E0B4
:100A30000E94440608950F931F938C01FC01868148
:100A400060E00E94D50881E090E00E945108F80122
:100A5000868161E00E94D50881E090E00E94510803
:100A6000F801868160E00E94D50884E690E00E944B
:100A700051081F910F910895CF92DF92EF92FF924C
:100A80000F931F93CF93DF93D82EC92E282F392F82
:100A9000C9018C01C0E0D0E0E62EFF24F801878177
:100AA00061E00E949608B7010C2E02C0759567950B
:100AB0000A94E2F76170F80187810E94D5082196B7
:100AC0000F5F1F4FC830D10549F78D2D9C2D0E9417
:100AD0001B05DF91CF911F910F91FF90EF90DF9059
:100AE000CF900895CF92DF92EF92FF920F931F93D2
:100AF000CF93DF93D82EC92E282F392FC9018C010F
:100B0000C0E0D0E0E62EFF24F801878161E00E947A
:100B10009608B7010C2E02C0759567950A94E2F706
:100B20006170F80187810E94D50821960F5F1F4FE1
:100B3000C430D10549F78D2D9C2D0E941B05DF91F6
:100B4000CF911F910F91FF90EF90DF90CF9008957C
:100B50001F93CF93DF93EC01162F8C81642F0E949B
:100B6000D5088D818F3F19F060E00E94D5088F85F0
:100B700084FF05C0CE01612F0E943C050EC0612F8D
:100B800070E084E0759567958A95E1F7CE010E9443
:100B90007205CE01612F0E947205DF91CF911F91E6
:100BA000089541E00E94A80581E090E0089540E0AA
:100BB0000E94A8050895EF92FF920F931F93CF9381
:100BC000DF938C017A016770660F660F660F6064B1
:100BD0000E94D705C0E0D0E0D801ED91FC91D7018B
:100BE000AC0FBD1F0190F081E02DC8016C910995FB
:100BF0002196C830D10581F7DF91CF911F910F91D8
:100C0000FF90EF900895FC016089862F8460808BAF
:100C10006C60CF010E94D7050895DF93CF93CDB7C5
:100C2000DEB728970FB6F894DEBF0FBECDBF9C018C
:100C3000FE013196ACE1B3E088E00D900192815065
:100C4000E1F7F9018389481710F0482F4150E42F4C
:100C5000F0E0EE0FFF1FEC0FFD1F8181680F606851
:100C6000C9010E94D70528960FB6F894DEBF0FBEC3
:100C7000CDBFCF91DF91089561E00E94D70580ED4F
:100C800097E00E9451080895CF93DF93EC01423022
:100C900018F08F8588608F874B8B1C8A222329F060
:100CA000413019F48F8584608F8780E593EC0E9432
:100CB00051088C8160E00E94D5088E8160E00E941E
:100CC000D5088D818F3F19F060E00E94D5086F85AF
:100CD00064FD1DC0CE0163E00E94720584E991E1CC
:100CE0000E945108CE0163E00E94720584E991E1FF
:100CF0000E945108CE0163E00E94720586E990E0EF
:100D00000E945108CE0162E00E94720516C0606226
:100D1000CE010E94D70584E991E10E9451086F85B8
:100D20006062CE010E94D70586E990E00E945108DA
:100D30006F856062CE010E94D7056F856062CE012B
:100D40000E94D70584E0888BCE010E940306CE0165
:100D50000E943C0682E0898BCE0166E00E94D705A6
:100D6000DF91CF9108956F927F928F92AF92CF9241
:100D7000EF920F931F93DF93CF93CDB7DEB73C0174
:100D8000162F842FF301448325830683E782C086D0
:100D9000A18682869D8593879E8594879F8595876A
:100DA0009889968761E00E949608F30185818F3FBC
:100DB00019F061E00E949608F301868161E00E94CB
:100DC0009608112319F0F301178603C080E1F3019F
:100DD0008787C30160E141E020E00E944406CF9193
:100DE000DF911F910F91EF90CF90AF908F907F90F8
:100DF0006F9008958F92AF92CF92EF920F931F93BF
:100E0000CF93DF93DC01362F542F722F102FAE2C8F
:100E10008C2C13961C921E92129788E193E01196E7
:100E20009C938E9300D000D0EDB7FEB73196CDB72E
:100E3000DEB71982118212821382CD0161E0432F45
:100E40002FEF052FE72EC12E0E94B3060F900F90B3
:100E50000F900F90DF91CF911F910F91EF90CF9056
:100E6000AF908F900895823000F5E82FF0E0EE0FFC
:100E7000FF1FEF59FC4F71836083882319F0813085
:100E8000A1F408C0809169008C7F842B8093690055
:100E9000E89A089580916900440F551F440F551F2B
:100EA000837F842B80936900E99A08951F920F92A3
:100EB0000FB60F9211242F933F934F935F936F932D
:100EC0007F938F939F93AF93BF93EF93FF93809103
:100ED000610390916203892B29F0E0916103F09105
:100EE00062030995FF91EF91BF91AF919F918F910F
:100EF0007F916F915F914F913F912F910F900FBE16
:100F00000F901F9018951F920F920FB60F921124F9
:100F10002F933F934F935F936F937F938F939F9301
:100F2000AF93BF93EF93FF9380916303909164031A
:100F3000892B29F0E0916303F09164030995FF91F7
:100F4000EF91BF91AF919F918F917F916F915F9141
:100F50004F913F912F910F900FBE0F901F901895BA
:100F60001F920F920FB60F9211242F933F938F93DE
:100F70009F93AF93BF938091690390916A03A0916F
:100F80006B03B0916C0330916D030196A11DB11DEF
:100F9000232F2D5F2D3720F02D570196A11DB11D58
:100FA00020936D038093690390936A03A0936B036E
:100FB000B0936C038091650390916603A0916703E1
:100FC000B09168030196A11DB11D809365039093B4
:100FD0006603A0936703B0936803BF91AF919F919D
:100FE0008F913F912F910F900FBE0F901F901895EA
:100FF0009B01AC017FB7F8948091650390916603E3
:10100000A0916703B091680366B5A89B05C06F3FC8
:1010100019F00196A11DB11D7FBFBA2FA92F982FDE
:101020008827860F911DA11DB11D62E0880F991FB1
:10103000AA1FBB1F6A95D1F7BC012DC0FFB7F8945A
:101040008091650390916603A0916703B091680356
:10105000E6B5A89B05C0EF3F19F00196A11DB11D93
:10106000FFBFBA2FA92F982F88278E0F911DA11D82
:10107000B11DE2E0880F991FAA1FBB1FEA95D1F7A7
:10108000861B970B885E9340C8F221503040404049
:10109000504068517C4F211531054105510571F6CD
:1010A0000895019739F0880F991F880F991F0297AB
:1010B0000197F1F70895789484B5826084BD84B572
:1010C000816084BD85B5826085BD85B5816085BD43
:1010D000EEE6F0E0808181608083E1E8F0E010825C
:1010E000808182608083808181608083E0E8F0E09D
:1010F000808181608083E1EBF0E080818460808387
:10110000E0EBF0E0808181608083EAE7F0E08081BD
:10111000846080838081826080838081816080831D
:101120008081806880831092C1000895CF93DF93FF
:10113000482F50E0CA0186569F4FFC0134914A5710
:101140005F4FFA018491882369F190E0880F991F1D
:10115000FC01E859FF4FA591B491FC01EE58FF4FF7
:10116000C591D491662351F42FB7F8948C91932FA5
:10117000909589238C93888189230BC0623061F418
:101180002FB7F8948C91932F909589238C93888115
:10119000832B88832FBF06C09FB7F8948C91832B35
:1011A0008C939FBFDF91CF910895482F50E0CA01E3
:1011B00082559F4FFC012491CA0186569F4FFC0126
:1011C00094914A575F4FFA013491332309F440C098
:1011D000222351F1233071F0243028F42130A1F082
:1011E000223011F514C02630B1F02730C1F0243080
:1011F000D9F404C0809180008F7703C08091800073
:101200008F7D8093800010C084B58F7702C084B535
:101210008F7D84BD09C08091B0008F7703C080911D
:10122000B0008F7D8093B000E32FF0E0EE0FFF1F42
:10123000EE58FF4FA591B4912FB7F894662321F48F
:101240008C919095892302C08C91892B8C932FBF10
:101250000895CF92DF92EF92FF920F931F93CF9357
:10126000DF937C016B018A01C0E0D0E00FC0D601A2
:101270006D916D01D701ED91FC910190F081E02D10
:10128000C7010995C80FD91F01501040011511055C
:1012900071F7CE01DF91CF911F910F91FF90EF90E9
:1012A000DF90CF900895CF93DF93EC016115710526
:1012B00019F420E030E00FC0DB010D900020E9F7C9
:1012C0001197A61BB70BE881F9810280F381E02D0D
:1012D000AD0109959C01C901DF91CF9108954F920D
:1012E0005F927F928F929F92AF92BF92CF92DF9246
:1012F000EF92FF920F931F93DF93CF93CDB7DEB79B
:10130000A1970FB6F894DEBF0FBECDBF2C01742E8F
:10131000CB01223008F42AE019A231E2C32ED12CED
:10132000CC0EDD1E822E9924AA24BB24672D752F96
:10133000A50194010E94460A79018A01C801B701FA
:10134000A50194010E94270A472D461B0894C10855
:10135000D1084A3014F4405D01C0495CF601408375
:10136000E114F1040105110521F07E2C5F2DC80167
:10137000DDCFC201B6010E945309A1960FB6F894C1
:10138000DEBF0FBECDBFCF91DF911F910F91FF90B8
:10139000EF90DF90CF90BF90AF909F908F907F9015
:1013A0005F904F900895DC012115310541F4ED91D6
:1013B000FC910190F081E02D642F099508950E9421
:1013C0006F090895EF92FF920F931F939A017B018B
:1013D00000E010E0B801A7010E94D3091F910F910E
:1013E000FF90EF9008950E9453090895EF92FF92A5
:1013F0000F931F937B018C01611571058105910588
:1014000029F420E030E040E050E00BC00E94DF0013
:10141000A80197010E94680AAC01CB01DA019C0186
:10142000AD01B901CA011F910F91FF90EF9008958E
:10143000CF93DF930E945B080E94EA04C0E0D0E0F3
:101440000E941E022097E1F30E940000F9CF629FE4
:10145000D001739FF001829FE00DF11D649FE00DAC
:10146000F11D929FF00D839FF00D749FF00D659F0D
:10147000F00D9927729FB00DE11DF91F639FB00D0C
:10148000E11DF91FBD01CF0111240895A1E21A2E1B
:10149000AA1BBB1BFD010DC0AA1FBB1FEE1FFF1F18
:1014A000A217B307E407F50720F0A21BB30BE40B68
:1014B000F50B661F771F881F991F1A9469F76095AF
:1014C0007095809590959B01AC01BD01CF01089569
:1014D00097FB092E05260ED057FD04D0D7DF0AD082
:1014E000001C38F450954095309521953F4F4F4F53
:1014F0005F4F0895F6F790958095709561957F4FB1
:101500008F4F9F4F08952F923F924F925F926F920D
:101510007F928F929F92AF92BF92CF92DF92EF9283
:10152000FF920F931F93CF93DF93CDB7DEB7CA1B04
:10153000DB0B0FB6F894DEBF0FBECDBF09942A882F
:10154000398848885F846E847D848C849B84AA84D7
:10155000B984C884DF80EE80FD800C811B81AA8164
:10156000B981CE0FD11D0FB6F894DEBF0FBECDBF2F
:10157000ED010895EE0FFF1F0590F491E02D099401
:04158000F894FFCF0D
:101584004B6E696768742052756E6E6572005441C3
:101594005020746F20506C617900544150204120D8
:1015A400746F20537461727400544150204220744B
:1015B4006F205265736574007C2E2E5F2E2E2E5F75
:1015C4005F2E5F2E2E2E2E2E7C007C5F5F2E2E2E05
:1015D4005F2E5F5F2E2E2E5F7C007C2E5F5F2E2E93
:1015E4002E5F2E2E2E2E5F5F2E7C007C2E2E2E5FE5
:1015F4002E2E2E2E5F5F2E2E2E5F2E7C007C2E2E06
:101604002E5F5F2E2E2E5F2E2E5F5F2E7C007C2E93
:101614005F2E2E2E2E5F5F2E2E2E5F2E2E7C007CB4
:101624005F5F2E5F2E2E2E2E2E5F5F2E5F7C007C42
:101634002E5F5F2E2E2E5F2E2E2E5F5F2E2E7C00B1
:101644007C2E5F2E2E2E2E2E5F5F2E5F2E2E2E2EA4
:101654007C007C2E5F5F2E2E2E2E5F2E2E2E2E5F74
:101664005F7C007C2E5F2E2E2E2E2E5F5F2E2E2E64
:101674002E5F2E7C007C2E5F5F2E2E5F2E2E2E2E54
:101684005F5F2E2E7C007C2E2E5F2E2E2E2E5F5F13
:101694002E2E2E2E5F2E7C007C2E2E5F5F2E5F2E34
:1016A4002E2E2E5F5F2E2E7C007C2E2E5F2E2E5F24
:1016B4005F2E2E2E5F2E2E2E2E7C007C5F5F2E2E14
:1016C4002E2E5F2E2E2E2E5F5F2E7C007C2E2E2E35
:1016D4005F5F2E2E2E5F2E2E2E2E5F5F7C007C2EC3
:1016E4005F2E2E2E5F5F2E2E2E2E5F2E2E2E2E7C04
:1016F400007C5F5F2E5F2E5F5F2E2E2E2E2E5F2EC0
:101704007C007C5F5F2E2E5F2E2E2E2E5F5F2E2E92
:101714002E2E7C007C5F2E2E2E2E2E5F5F2E2E2EE4
:101724002E5F2E2E2E7C007C5F5F2E2E5F2E2E2EA3
:101734005F5F2E5F2E7C007C5F5F2E2E5F2E2E2E31
:101744005F5F2E5F2E5F5F7C00F09F988EF09F9806
:101754008EF09F988E000100000001010C0C000E19
:101764001C0C1A130C0C000C0C0C0C0E0C0C001E94
:101774000D1F10001E0D1F10000000001F1F1F1F53
:101784001F1F1F1F03030303030303031818181861
:101794001818181800000000D1052909000040009D
:0417A40014005400D9
:00000001FF
