:100000000C94B1010C94F8010C94F8010C94801E2E
:100010000C94F8010C94F8010C94F8010C94F8017C
:100020000C94F8010C94F8010C94940D0C94D00CE1
:100030000C94B60E0C94F8010C94F8010C94F80191
:100040000C94F8010C94F8010C94F8010C94F8014C
:100050000C94F8010C94690E0C94F8010C94F801BE
:100060000C94F8010C94F8010C94F8010C94F8012C
:100070000C94F8010C94F8010C94F8010C94F8011C
:100080000C94F8010C94F8010C94F8010C94F8010C
:100090000C94F8010C94F8010C94F8010C94F801FC
:1000A0000C94F8010C94F8010C94F801D905D905C9
:1000B000130613065A0601080108010876065407BC
:1000C00065076507EB0A120BA80C120BA80C5A0B5C
:1000D0007D0BA80C6C0C7F0C9E199E19B119B119DF
:1000E000A719B119B119B1199E199E19AC19B119F5
:1000F000B119AC1905010980A101850319012AB7BD
:1001000000150126B700950175108100C0050C0986
:1001100001A101850419012AA002150126A002955A
:100120000175108100C005010906A101050719E04C
:1001300029E71500250195087501810295017508CB
:1001400081010507190029FF150026FF0095067596
:100150000881000508190129059505750191029589
:100160000175039101C009023B00020100A0FA09D8
:1001700004000001030101000921110100012240D6
:10018000000705810308000A0904010001030000BB
:10019000000921110100012232000705820320001D
:1001A0000A1201000200000008D8042DEB00010132
:1001B0000200010C036B00690075006D006900000E
:1001C0000010036C0069006C00690075006D00731D
:1001D0000000000403090400DA0281FFD9F1DB20EA
:1001E000A4A62EAF00A0C000A1C800AED580A81F55
:1001F000D300408D14200000AF29001E001F0020F6
:1002000000210022002B0014001A0008001500171E
:1002100000E00004001600070009000A00E1001DCC
:10022000001B000600190005000000E200E3002C9E
:10023000422C002F00350027002600250024002333
:10024000003100130012000C0018001C00340033B1
:10025000000F000E000D000B00280038003700369C
:100260000010001100000065002A412C42280030D7
:10027000000100010001000100010001003A003B03
:10028000003C003D003E003F000100010001000174
:100290000001000100010001000100010001000156
:1002A0000000000100010001000100010046002ED5
:1002B000002D000100010001004500440043004200
:1002C000004100400001004B004D0052004A00492F
:1002D0000001004E004F00510050004C0000000192
:1002E0000001000100010001000100010001000106
:1002F00000010001000100010001000100010001F6
:1003000000010001000100010001000100010001E5
:1003100000010001000100010000000100010001D6
:100320000001000100560055005400A800A900AAD1
:10033000005700610060005F00AB00AC0063005E2E
:10034000005D005C00AE00010058005B005A0059DF
:100350000001000100000062000100010001000135
:10036000000011241FBECFEFDAE0DEBFCDBF04B620
:1003700003FE27C08091930490919404A09195046A
:10038000B09196048730904BA740B04BD1F41092B7
:10039000930410929404109295041092960414BE43
:1003A00084B7877F84BF0FB6F894A89580916000CA
:1003B000886180936000109260000FBEE0E0F8E377
:1003C000099511E0A0E0B1E0E6E4F5E402C0059093
:1003D0000D92AC37B107D9F724E0ACE7B1E001C02A
:1003E0001D92A339B207E1F70E9416110C94A122C5
:1003F0000C9400001F93CF93DF93CDB7DEB76797C0
:100400000FB6F894DEBF0FBECDBF4B8B5C8B6D8BF0
:100410007E8B8F8B61111092570486E09E01235FC3
:100420003F4FD901E82F1D92EA95E9F795E0FE01CB
:100430007396D90101900D929A95E1F79C894E89A6
:100440005F897B897D879E876F87598B488BF901F0
:10045000DE01179601900D928A95E1F7CE0107967D
:100460000E94B51981113EC086E0FE013796DE017B
:10047000119601900D928A95E1F7FF81E8856A85D2
:100480007B856115710531F0EF3F31F481E0FF3F6D
:1004900019F403C081E001C080E080FD23C02091F9
:1004A000230430E0C90101968770992740915404D4
:1004B00050E08417950779F1F983EA837D836C8393
:1004C00096E0929FD001939FB00D1124AC5DBB4F7D
:1004D000FE01319601900D929A95E1F780932304E5
:1004E0000E94D51616E08091540490912304891738
:1004F000F9F0189FC00111248C5D9B4F0E94B51923
:100500008823B1F08091540490E001968770992778
:1005100080935404E8CF0E941D1C10922304109273
:100520005404EDE1F4E086E0DF011D928A95E9F7DD
:1005300067960FB6F894DEBF0FBECDBFDF91CF91A7
:100540001F9108958F929F92AF92BF92CF92DF92A8
:10055000EF92FF920F931F93CF93DF93CDB7DEB748
:100560002A970FB6F894DEBF0FBECDBFFC01008105
:10057000D18083819481892B39F01FEFD11206C07D
:1005800091E00F3F19F403C091E001C090E090FDAD
:1005900077C57F0185E0DE01169601900D928A9560
:1005A000E1F7F70122818E819F81222349F00E9489
:1005B0001419182F682F8E819F810E94831B03C0FE
:1005C0000E94561B182F2CE3129FF001112436E0D5
:1005D000D39EE00DF11D1124E00FF11DEE0FFF1F62
:1005E000E750FE4F05911491F7018281882309F4A9
:1005F00063C0C80190568115F0E29F0748F0905EF5
:10060000811520E1920720F0915C81159F4118F43B
:10061000C801992708C00F3F110509F010F4C8015F
:1006200002C080E090E09C01245031092432310561
:1006300020F08B970E9708F03FC080916404909152
:100640006504009799F10E948F0E9C0140E050E0F4
:1006500060EE7EE280E090E00E944422C09063045D
:100660002F3F310519F010F02FEF30E0D12CB901F8
:100670006C197D0980E090E00E94082127EA39E7A3
:1006800047E45DE30E94D7210E94C2204B015C0138
:10069000B601DD0C880B990B0E940A21A50194017B
:1006A0000E9456200E94D920609363040E94AA0EE3
:1006B0009093650480936404F701828181110E9404
:1006C0009E0E043FFCE51F0741F190F4093D3CE517
:1006D0001307E9F00A3D8CE5180789F1083D9CE510
:1006E0001907B1F506E221EE41EE68ED7CE52CC07C
:1006F000063FECE51E07E9F0B0F0073F2CE51207D6
:1007000039F507E225EE46EE67EF7CE51DC007E20E
:1007100025EE45EE69ED7CE517C006E221EE40EEE0
:1007200064EF7CE511C007E225EE44EE65EF7CE561
:100730000BC006E221EE42EE66EF7CE505C008E262
:1007400021E045EE6AED7CE5C7010E948B10BAC13D
:10075000F7018281882309F445C110921204043004
:10076000FDE51F0758F40B3F2CE5120760F4C801A4
:1007700082509C45449708F01FC105C002363DE5F4
:10078000130709F019C10E94EF159093C4018093DB
:10079000C30100318CE5180709F4CAC008F041C054
:1007A0000830ECE51E0709F4A4C0F0F404302CE591
:1007B000120709F48CC068F402308CE5180709F4BC
:1007C00082C003301C4509F0E7C08091C3018260FC
:1007D000E1C00630ECE51E0709F483C008F085C0CF
:1007E0008091C3018860D6C00C302CE5120709F453
:1007F00090C068F40A308CE5180709F47EC008F050
:1008000084C00E941D1C8091C3018068C3C00E304B
:10081000ECE51E0709F481C008F086C08091C30191
:1008200094C00D3F2CE5120709F47BC038F5043164
:100830008CE5180709F49AC058F40231ECE51E075C
:1008400009F47AC008F07EC08091C3018F7BA2C0FA
:100850000B3F2CE51207F1F108F03FC005311C45B4
:1008600009F09AC08091C30182FB222720F991E010
:10087000922790FB82F990FB83F98CC001309DE5B3
:10088000190709F467C050F48091C4010F3FFCE5DB
:100890001F07C1F108F05BC08D7F65C003303DE5E7
:1008A000130709F471C008F46DC002361D4509F044
:1008B00073C08091C30184FB222720F991E0922725
:1008C00090FB84F967C08091C301816063C080910F
:1008D000C30116C08091C40116C08091C40182601A
:1008E00042C08091C301806155C08091C301806284
:1008F00051C08091C30180644DC08091C301886064
:10090000846048C0826081602EC08091C3018E7F68
:1009100041C08091C3018D7F3DC08091C301877F1D
:1009200039C08091C40114C08091C3018F7E32C050
:100930008091C3018F7D2EC00E941D1C8091C30138
:100940008F7728C08091C301877F8B7F23C08D7FE5
:100950008E7F09C08091C401982F909591708E7FF1
:10096000892B90FB81F98093C40116C00E941D1C45
:100970008091C30187FB222720F991E0922790FB09
:1009800087F908C061E001C060E08EE090E00E945D
:10099000212002C08093C3016091C3011091C40162
:1009A00084E090E00E942120612F82E290E00E948A
:1009B00021200E941D1C86C006312CE5120759F526
:1009C000809158048A7A91E009F490E090937E0136
:1009D000882311F065E301C069E285E194E00E949B
:1009E000DF0E16C006311C4509F08BC080917E01D8
:1009F000882309F443C385E3E5E1F4E02BE134E027
:100A00009281891301C0128231962E173F07C1F7D8
:100A10000E94711657C00B35EDE51E0709F44CC056
:100A200058F401152CE51207C1F00F3D1C4509F0E3
:100A300068C00E94001646C00C358DE5180709F401
:100A40003DC00D351D4509F05CC08091C40182FB9D
:100A5000882780F991E0892732C00E941D1CEFEFA2
:100A6000F4E30CE0E150F0400040E1F700C000008A
:100A700081E08093E00080E28093D8001092C9006A
:100A80008FE19EE40197F1F700C0000087E090EB52
:100A9000DC018093930490939404A0939504B09305
:100AA00096049CE088E10FB6F894A89580936000C6
:100AB0000FBE90936000FFCF81E001C080E00E94F4
:100AC0009E161FC080915504877009F4D9C2F701A2
:100AD0008281882309F4D4C282E02A960FB6F89462
:100AE000DEBF0FBECDBFDF91CF911F910F91FF9061
:100AF000EF90DF90CF90BF90AF909F908F900C942D
:100B0000B816F70182810081D180882359F0802FA7
:100B10009D2D0E941419182F682F802F9D2D0E9443
:100B2000831B05C0802F9D2D0E94561B182F2CE380
:100B3000129FF001112436E0D39EE00DF11D112427
:100B4000E00FF11DEE0FFF1FE750FE4F85919491CE
:100B50000E9466148C01982EF701C280A580A29491
:100B60003FE0A32280915504877099F0CC2089F052
:100B7000812F807F803421F080E2800F883048F020
:100B800082E00E94B816809155048770DD24D394CA
:100B90008111D12CB12EB2949FE0B9228B2D90E01F
:100BA0008C30910508F02DC2FC01EA5AFF4F0C94DD
:100BB0006322812F807F1F70882311F01295107F90
:100BC000CC20B9F0112309F407C280E2800F8830ED
:100BD00010F0911006C080915804182B10935804FF
:100BE00005C080915704182B109357040E9471166A
:100BF000F3C1802F0E943D1C112309F402C2005E44
:100C00001095083010F0911006C0809158041823F8
:100C10001093580405C0809157041823109357046B
:100C20000E947116EEC1812F807F1F70803211F0FB
:100C30001295107F802F992021F0F1E09F1601F18D
:100C40002EC0CC20A1F080915904AA2071F001E0BF
:100C5000A0120BC0182B9091C40192FDD2C118179D
:100C600009F4CFC110935904CCC1812B10C0AA2024
:100C700021F021E0A21609F4C4C10E946B1616C02F
:100C8000CC2041F035E03A1508F4BBC1812F0E9419
:100C9000331CB7C184E08A1508F4B3C107C0CC2067
:100CA00019F0AA2099F398C1A1109DC1812F0E942B
:100CB000281CA7C1812F86958695837019F08130F5
:100CC00059F09FC1CC2019F0C801937002C080E098
:100CD00090E00E9424109BC1CC2019F0C8019370B1
:100CE00002C080E090E00E94F90E91C1812F8370D4
:100CF00009F069C0C11089C1902F9295969597709F
:100D0000990F990F802F8F70882E912CA12CB12CC8
:100D1000092E04C0880C991CAA1CBB1C0A94D2F78B
:100D200004FF12C04FE050E060E070E004C0440FE8
:100D3000551F661F771F9A95D2F7DB01CA01809570
:100D40009095A095B09503C080E090E0DC011695E9
:100D50001695412F4370423019F1C8F400915A049E
:100D600010915B0420915C0430915D04413059F096
:100D700088299929AA29BB29BC01CD0160237123A7
:100D8000822393230AC0802A912AA22AB32ABC0173
:100D9000CD01682979298A299B290E94131C35C114
:100DA00088299929AA29BB2900915A0410915B042A
:100DB00020915C0430915D04BC01CD016027712756
:100DC00082279327EACFCC2019F0812F817001C0B0
:100DD0008695882309F419C1902F9295969597705E
:100DE000990F990F802F8F70882E912CA12CB12CE8
:100DF000092E04C0880C991CAA1CBB1C0A94D2F7AB
:100E000004FF12C04FE050E060E070E004C0440F07
:100E1000551F661F771F9A95D2F7DB01CA0180958F
:100E20009095A095B09503C080E090E0DC01169508
:100E30001695412F43704230D9F068F50091BF01FB
:100E40001091C0012091C1013091C201413059F08F
:100E500088299929AA29BB29BC01CD0160237123C6
:100E6000822393231EC0802A912AA22AB32A13C068
:100E700088299929AA29BB290091BF011091C00195
:100E80002091C1013091C201BC01CD0160277127C1
:100E90008227932706C0BC01CD01682979298A29B8
:100EA0009B290E94AF1BB1C01F70CC2039F0812F4D
:100EB0000E94F21B802F0E94331CA7C0802F0E942B
:100EC000281C812F0E94CD1BA0C0802F22EF9216DC
:100ED00009F440C0291538F030EF931661F091EF16
:100EE000991699F174C0E3EF9E16D9F1F4EF9F16AD
:100EF00009F44EC06CC0CC2019F104E00A1508F4C6
:100F000080C01F7181E090E0A0E0B0E0AC01BD01C5
:100F100004C0440F551F661F771F1A95D2F78091A2
:100F2000BF019091C001A091C101B091C2018A019D
:100F30009B01082719272A273B27C901B80125C08B
:100F400025E02A1508F45DC0DCCFCC2029F0812FE4
:100F50008F7130C0CC20D9F3812F8F710E94CD1BAF
:100F600050C0CC2079F01F7181E090E0A0E0B0E0AB
:100F7000BC01CD0104C0660F771F881F991F1A9509
:100F8000D2F703C060E070E0CB010E94AF1B39C014
:100F9000CC2099F01F71812F0E94F21B8091C40117
:100FA00082FD07C038E0139FC00111248360809345
:100FB0005504812F0E94F21B24C081E00E94B816C4
:100FC00081E08A15F0F482E00E94B8161AC0CC20A5
:100FD00039F0AA2009F4BBCF802F0E94751C11C0E4
:100FE000AA2009F4B9CF893349F49FEFE7EEF3E083
:100FF0009150E040F040E1F700C00000802F0E94D7
:101000003D1C88EF8B0D843010F40E943A10DD20D7
:10101000A9F08091550480FD11C0F70112828595D9
:10102000859585950E94F21BC7010E94A2028091BE
:1010300055048595859585950E94CD1B85E0F70122
:10104000DE01119601900D928A95E1F789819A81CE
:101050000E94561B9A810CE3809FF001112416E038
:10106000919FE00DF11D11248981E80FF11DEE0F14
:10107000FF1FE750FE4F8591949102C089E2BCCCDE
:101080002A960FB6F894DEBF0FBECDBFDF91CF9189
:101090001F910F91FF90EF90DF90CF90BF90AF9096
:1010A0009F908F9008952091E4003091E50095E69F
:1010B0004091EC00842F817040FF23C08091E800B4
:1010C00080FD1DC080919801882399F0853099F0AA
:1010D0008091EB0085FD11C04091E4005091E50046
:1010E0002417350729F3915011F09A01E1CF84E0DC
:1010F000089582E0089583E0089581E0089580E0F6
:1011000008954091E80042FFDDCF0895EF92FF92ED
:101110000F931F93CF93DF937C018B010E945308A1
:10112000811119C0E70101151105A1F08091E800B6
:1011300085FD0AC08091E8008E778093E8000E94C8
:101140005308882381F307C089918093F1000150EF
:101150001109E9CF80E0DF91CF911F910F91FF90AE
:10116000EF90089580919A0187FF11C08091E80067
:1011700082FD05C0809198018111F8CF11C0809146
:10118000E8008B770BC080919801882349F080910B
:10119000E80080FFF8CF8091E8008E778093E80028
:1011A0000895982F973068F59093E900981739F0D3
:1011B0007091EC002091ED005091F00003C0242FBD
:1011C000762F50E021FD02C09F5FECCF3091EB0005
:1011D0003E7F3093EB003091ED003D7F3093ED008A
:1011E0003091EB0031603093EB007093EC00209372
:1011F000ED005093F0002091EE0027FDE5CF80E058
:1012000008958F708093E90081E008952091A001F6
:101210003091A1012617370748F06115710539F49F
:101220002091E8002E772093E80001C0B901FC016D
:1012300020E06115710579F1809198018823F1F121
:101240008530F1F18091E80083FD3CC08091E80099
:1012500082FD2EC08091E80080FFEBCF2091F3004B
:101260008091F20090E0922B6115710551F0883069
:10127000910538F421912093F10061507109019694
:10128000F3CF21E0089709F020E08091E8008E7705
:101290008093E800CECF2111CFCF0AC08091980172
:1012A000882361F0853061F08091E80083FD0AC0F9
:1012B0008091E80082FFF2CF80E0089582E00895F7
:1012C00083E0089581E00895089580918D01089547
:1012D00090919801943031F58093880170938A0140
:1012E0006093890182E08093E9008FEF9091E8009C
:1012F000815095FD06C095ED9A95F1F7000081119A
:10130000F5CF8091E80085FF0DC040E050E063E03C
:1013100070E088E891E00E9486088091E8008E776E
:101320008093E8000895BC0184E00C946809BC0136
:1013300083E00C946809CF93DF9321E02093E900C8
:101340002FEF3091E800215035FD06C035ED3A957C
:10135000F1F700002111F5CF2091E80025FF14C01E
:10136000EC0140E050E068E070E00E948608809167
:10137000E8008E778093E80088E0FE01AEE8B1E0F7
:1013800001900D928A95E1F7DF91CF910895EF9248
:10139000FF920F931F93CF93DF93EC017B0164E6E1
:1013A00070E088E70E94D41C8C01EC0EFD1ECE1567
:1013B000DF0561F017FD0AC0FE01849164E670E06C
:1013C0000E94551D8C012196892B89F30E94D91DFD
:1013D000C801DF91CF911F910F91FF90EF90089579
:1013E000FC01AC014B5F5F4F8FEF91E321918227AE
:1013F00028E030E087FF03C0880F892701C0880FED
:1014000021503109B9F7E417F50781F708951F93C3
:10141000CF93DF93CDB7DEB7AA970FB6F894DEBFB0
:101420000FBECDBFEAE9F1E08091F100819321E0A8
:10143000E23AF207C9F780919B01833009F460C05A
:1014400030F4813071F0823009F49AC0B1C08A3032
:1014500009F486C08B3009F46BC0893009F0A8C04C
:1014600020C080919A01813A09F0A2C08091E800E1
:10147000877F8093E80080919E0190919F01892B46
:1014800021F468E08EE891E003C060E080E090E045
:1014900070E00E9406098091E8008B778093E80055
:1014A00087C080919A01813209F082C080919E01AB
:1014B00090919F01029708F07BC08091E800877FA0
:1014C0008093E8008091E80082FD05C0809198013A
:1014D0008111F8CF6DC02091F3008091F20090E06F
:1014E000922B029729F48091F1008B7F813021F4B7
:1014F0008091F10080938D018091E8008B7754C03A
:1015000080919A01813A09F053C080919E01909197
:101510009F01892B09F04CC08091E800877F809360
:10152000E8008091E80080FFFCCF8091000137C087
:1015300080919A018132E1F580919E0190919F0105
:10154000892BB1F58091E800877F8093E8000E94A5
:10155000B20880919C01809300010E941D1C28C04C
:1015600080919A01813221F58091E800877F8093F4
:10157000E8000E94B20880919D0180938C0118C000
:1015800080919A01813AA1F48091E800877F80934D
:10159000E8008091E80080FFFCCF80918C0180936F
:1015A000F1008091E8008E778093E8000E94B208F5
:1015B0008091E80083FFCCC180919A0190919B01BA
:1015C000492F50E04A30510508F0C2C1FA01EE59E6
:1015D000FF4F0C946322803821F0823809F0B8C1A3
:1015E00008C08091960190919701992389F08260BB
:1015F0000FC080919E018F70873008F0A9C1809341
:10160000E9008091EB0085FB882780F91092E900C2
:101610009091E800977F9093E8008093F1001092FA
:10162000F10065C1282F2D7F09F092C1882319F0A0
:10163000823061F08DC180919C01813009F088C1B8
:10164000933009F080E0809397012EC080919C0137
:1016500081112AC080919E018F702FEF280F2630B4
:1016600008F076C18093E9002091EB0020FF1CC0B8
:10167000933021F48091EB00806214C09091EB00D4
:1016800090619093EB0021E030E0A90102C0440F8B
:10169000551F8A95E2F74093EA001092EA00809184
:1016A000EB0088608093EB001092E9008091E800E5
:1016B000877F20C181114CC110919C011F778091BF
:1016C000E3008078812B8093E3008091E800877F9E
:1016D0008093E8000E94B2088091E80080FFFCCF70
:1016E0008091E30080688093E300111102C082E0E2
:1016F00001C083E0809398012BC18058823008F0AC
:1017000027C180919C0190919D018C3D53E09507EC
:1017100079F583E08A838AE289834FB7F894DE0102
:10172000139620E03EE051E2E32FF0E050935700A3
:10173000E49120FF03C0E295EF703F5FEF708E2FC2
:1017400090E0EA3010F0C79601C0C0968D939D934B
:101750002F5F243149F74FBF8091E800877F809346
:10176000E8006AE270E0CE0101960E940609AEC070
:1017700040919E0150919F01292F3327233031053D
:10178000A9F068F42130310509F4F1C022303105A7
:1017900009F0DEC08BE390E0E6E6F1E044C02132E0
:1017A000310521F12232310571F1D2C09927813002
:1017B0009105A1F058F0029709F0CAC0E3EBF1E0FF
:1017C000E4918E2F90E0E3EBF1E02AC0E3EDF1E04D
:1017D000E4918E2F90E0E3EDF1E022C0E1ECF1E046
:1017E000E4918E2F90E0E1ECF1E01AC04115510533
:1017F00009F4C2C04130510509F0AAC089E090E067
:10180000E1E9F1E010C04115510509F4BAC04130D9
:10181000510509F09DC082E390E0E4EFF0E003C0E1
:10182000009709F495C02091E800277F2093E800F5
:101830002091A0013091A1018217930708F49C0127
:1018400040E02115310589F180919801882309F440
:101850003DC08530D9F18091E80083FD37C080918B
:10186000E80082FD2FC08091E80080FFEACF409120
:10187000F3008091F20090E0942B2115310559F08E
:101880008830910540F444914093F1003196215005
:1018900031090196F2CF41E0089709F040E08091CC
:1018A000E8008E778093E800CCCF4111CDCF0AC0FD
:1018B00080919801882351F0853041F08091E800B3
:1018C00083FD04C08091E80082FFF2CF8091E800A0
:1018D0008B778093E8003CC08038D1F58091E80098
:1018E000877F8093E800809199018093F100809137
:1018F000E8008E778093E8000E94B20829C0811129
:1019000027C080919C0190919D019927029704F531
:101910008091E800877F8093E80010919C011093EC
:1019200099010E94B208111106C08091E30087FD61
:1019300002C081E001C084E08093980142E061EC44
:1019400081E00E94D10842E261EC82E00E94D1086D
:101950008091E80083FF1AC08091E800877F809320
:10196000E8008091EB0080628093EB000FC082E181
:1019700090E0E1EAF1E057CF89E090E0E8E7F1E0BC
:1019800052CF80E490E0E6E2F1E04DCFAA960FB6A8
:10199000F894DEBF0FBECDBFDF91CF911F910895A8
:1019A0001F920F920FB60F9211242F933F934F93D4
:1019B0005F936F937F938F939F93AF93BF93CF93D7
:1019C000DF93EF93FF93C091E900CF708091EC001B
:1019D000D82FD17080FDD0E81092E9008091F000FE
:1019E000877F8093F00078940E94070A1092E900A4
:1019F0008091F00088608093F000CD2BCF70C09371
:101A0000E900FF91EF91DF91CF91BF91AF919F914D
:101A10008F917F916F915F914F913F912F910F9097
:101A20000FBE0F901F901895E8EDF0E080818E7F3B
:101A300080831092E2001092DA001092E100A0EE92
:101A4000B0E08C9181608C9380818F77808319BC0A
:101A5000A7EDB0E08C918E7F8C9380818F7E808308
:101A600010928B010895CF92DF92EF92FF920F9325
:101A70001F93CF93DF93C8EDD0E088818F7E88835A
:101A8000E7EDF0E080818160808384E082BF81E0C7
:101A900080938B0188818E7F888302EE10E0F801AD
:101AA00010821092DA0081EEC82ED12CF60110823D
:101AB00088818F77888388818068888388818F7DFB
:101AC000888319BC10929801109299011092970185
:101AD0001092960190EEE92EF12CF70180818B7F18
:101AE000808388818160888342E060E080E00E949A
:101AF000D108F60180818E7F8083F801808181602A
:101B00008083808188608083F70180818E7F8083DD
:101B1000888180618883DF91CF911F910F91FF9021
:101B2000EF90DF90CF9008951F920F920FB60F9213
:101B300011242F933F934F935F936F937F938F93D2
:101B40009F93AF93BF93EF93FF938091E10082FF48
:101B500009C08091E20082FF05C08091E1008B7F87
:101B60008093E1008091DA0080FF2AC08091D80044
:101B700080FF26C08091DA008E7F8093DA0080910A
:101B8000D90080FF18C080E189BD82E189BD09B418
:101B900000FEFDCF81E08093980180918B0181113F
:101BA0000FC00E94140D0E94330D8091E2008460EA
:101BB0008093E20005C019BC1092980110928B012D
:101BC0008091E10080FF17C08091E20080FF13C088
:101BD0008091E2008E7F8093E2008091E20080613C
:101BE0008093E2008091D80080628093D80019BC75
:101BF00085E0809398018091E10084FF2EC0809160
:101C0000E20084FF2AC080E189BD82E189BD09B478
:101C100000FEFDCF8091D8008F7D8093D800809109
:101C2000E1008F7E8093E1008091E2008F7E8093BF
:101C3000E2008091E20081608093E200809199014E
:101C4000882311F084E007C08091E30087FD02C083
:101C500081E001C083E0809398018091E10083FFDF
:101C600027C08091E20083FF23C08091E100877F3D
:101C70008093E10082E08093980110929901809115
:101C8000E1008E7F8093E1008091E2008E7F80935F
:101C9000E2008091E20080618093E20042E060E037
:101CA00080E00E94D1088091F00088608093F0006D
:101CB000FF91EF91BF91AF919F918F917F916F9124
:101CC0005F914F913F912F910F900FBE0F901F90FA
:101CD000189578941F920F920FB60F9211248F933C
:101CE0009F93AF93BF938091840190918501A091C0
:101CF0008601B09187010196A11DB11D80938401D9
:101D000090938501A0938601B0938701BF91AF9115
:101D10009F918F910F900FBE0F901F9018959C016F
:101D20004FB7F8948091840190918501A09186012C
:101D3000B09187014FBF821B930B08952FB7F89482
:101D40006091840170918501809186019091870155
:101D50002FBF08952FB7F894809184019091850149
:101D6000A0918601B09187012FBF08951F920F9215
:101D70000FB60F9211248F939F93AF93BF938091CF
:101D80008301811113C08091840190918501A091FC
:101D90008601B09187014196A11DB11D80938401F8
:101DA00090938501A0938601B0938701BF91AF9175
:101DB0009F918F910F900FBE0F901F9018959C01CF
:101DC000FC0132969FEF80E04191461789F09F3FDA
:101DD00019F4411101C0982F8F5F8630A9F79F3FFA
:101DE00039F0F901E90FF11D97FDFA956283089525
:101DF000089520918101309182012817390771F0EF
:101E00009093820180938101E0917F01F0918001A4
:101E1000309721F00084F185E02D099408950F9307
:101E20001F93CF93DF9300D000D0CDB7DEB74091A2
:101E3000B6015091B7016091B8017091B9012FB707
:101E4000F8948091840190918501A0918601B091D0
:101E500087012FBF841B950BA60BB70B843691050A
:101E6000A105B10508F443C00E942C14882319F081
:101E70000E949E0E0EC00E949E0E0091BB0110910A
:101E8000BC012091BD013091BE01600F711F821F06
:101E9000931FDC01CB010296A11DB11D89839A839A
:101EA000AB83BC83809118019091190184559E4F9A
:101EB0004091170150E04530510510F044E050E0EA
:101EC000BE016F5F7F4F0E94982282E090E00E94E7
:101ED000471F892B11F080E00BC00E949E0E60937B
:101EE000B6017093B7018093B8019093B90181E076
:101EF0000F900F900F900F90DF91CF911F910F9146
:101F00000895EF92FF921F93CF93DF9300D000D0FC
:101F100000D0CDB7DEB77B0180E090E00E94471F84
:101F2000892B09F065C04091060150E0411551052B
:101F300011F041E050E06091070170910801645593
:101F40007E4FCE0106960E9498224091A8015091A2
:101F5000A9016091AA017091AB012FB7F89480910B
:101F6000840190918501A0918601B09187012FBFD6
:101F7000841B950BA60BB70B84369105A105B10503
:101F800038F48DEA91E00E94F0099E81891791F161
:101F900081E090E00E94471F892BA1F4409110013D
:101FA00050E04630510510F045E050E060911101DD
:101FB0007091120164557E4FCE0101960E949822C5
:101FC00011E001C010E08DEA91E00E94F00991E07B
:101FD0002E81281390E0192311F10E949E0E609328
:101FE000A8017093A9018093AA019093AB010CC042
:101FF00010E001C011E085E0EDEAF1E0DE011196AC
:1020000001900D928A95E1F7112349F085E0FE01D8
:102010003196A3EAB1E001900D928A95E1F785E04F
:10202000E3EAF1E0D70101900D928A95E1F7812F63
:1020300026960FB6F894DEBF0FBECDBFDF91CF91CD
:102040001F91FF90EF900895209113043091140494
:102050002817390771F09093140480931304E091CA
:102060007F01F0918001309721F00680F781E02D0B
:10207000099408950E942C14882351F0E0917F0167
:10208000F0918001309721F00190F081E02D0994CA
:1020900080E00895AF92BF92CF92DF92EF92FF92CD
:1020A0000F931F93CF93DF937C015B016A018091B3
:1020B000BA018A3018F001E010E002C00AE010E036
:1020C000C1E0D0E0F894B501C701F6010995789414
:1020D000811115C021960C171D0794F0CC9F90011B
:1020E000CD9F300D300D112480E090E045E34A95FE
:1020F000F1F70000019682179307C1F7E3CF81E063
:10210000DF91CF911F910F91FF90EF90DF90CF90D3
:10211000BF90AF900895EF92FF920F93CF93DF930C
:10212000C42FD22FFC0182818823D1F04093120466
:102130000E94AA0E909311048093100480E28C0FE9
:10214000883008F06DC0C77081E001C0880FCA9563
:10215000EAF7DF91CF910F91FF90EF900C94331C31
:102160008091120448134BC0809110049091110487
:102170000E948F0E8D37910508F041C0CD17C9F030
:1021800080E28C0F883040F4C77081E001C0880F76
:10219000CA95EAF70E94281C80E28D0F883048F427
:1021A00081E09D2F977001C0880F9A95EAF70E94F1
:1021B000331C093319F0E12CF12C03C080E5E82E23
:1021C000F12C802F0E94751CE114F10451F08FE96D
:1021D0009FE00197F1F700C0000091E0E91AF108D3
:1021E000F3CF802F0E943D1C80E28D0F8830C0F419
:1021F000D77081E001C0880FDA95EAF70AC080E263
:102200008C0F883068F4C77081E001C0880FCA95D0
:10221000EAF7DF91CF910F91FF90EF900C94281C7B
:10222000DF91CF910F91FF90EF900895CF93DF93BF
:10223000CDB7DEB72C970FB6F894DEBF0FBECDBF7B
:1022400084B7877F84BF0FB6F894A895809160000B
:10225000886180936000109260000FBE90E080E87B
:102260000FB6F89480936100909361000FBE85B71C
:10227000806885BF85B7806885BF87EE93E19093BE
:102280007D0180937C010E94140D0E94330D80918A
:10229000E20084608093E200789480919801882322
:1022A000A1F01091E9001F709091EC00892F8170CE
:1022B00090FD80E8182B1092E9008091E80083FDE2
:1022C0000E94070A1F701093E90082E084BD93E02A
:1022D00095BD9AEF97BD80936E001092BB0110924E
:1022E000BC011092BD011092BE010E942C1480937B
:1022F0001F010E942C1481110E943A1E80911F011F
:1023000080911F01811102C095E001C090E090937F
:10231000D00185E0891B8093CF0103E311E0A8E39E
:10232000EA2EA1E0FA2ED8018D918D018F3F11F098
:102330000E944F14E016F106B1F70DE311E0F3E44B
:10234000EF2EF1E0FF2EF80181918F018F3F11F008
:102350000E944F14E016F106B1F7E5ECF1E08FECC6
:1023600091E0A1EDB1E011921D928E179F07D9F770
:1023700080E090E00E941B20893E9E4F11F00E9459
:10238000001682E090E00E941320809305040E94D2
:10239000EF159093C4018093C30183E090E00E9405
:1023A0001320682F70E080E090E00E94131C0E94D0
:1023B0002C14811102C00E943D1E1092FD0380E882
:1023C0008093DB010E94CE1C6DE070E08AEE91E00C
:1023D0000E94C709892B79F58091FD0363E070E0C5
:1023E00081FD26C087EE91E00E94C709892B19F56F
:1023F0006DE070E087ED91E00E94C709892BD9F468
:1024000080E092E0EDEFF1E0DF019C011D922150B0
:102410003040E1F78FEF9FEF909300048093FF032C
:1024200081E0809303048093DC011092FE0303C0DB
:1024300084EE91E0D9CF80E291E090938001809387
:102440007F0170E4672E22242394312C809198011F
:10245000853009F044C000E112E180919801853097
:1024600009F039C080919801843019F110928301EC
:1024700088E190E00FB6F894A895809360000FBEB5
:102480006092600083B7817F846083BF83B781607F
:1024900083BF7894889583B78E7F83BF0FB6F894F7
:1024A000A895809160008861809360001092600020
:1024B0000FBE80919701882309F4CFCF0E944B175C
:1024C000E1EDF1E0819181116CC1ABEDB1E0AE17AE
:1024D000BF07C1F7C2CF0E941D1C0E943A100E9484
:1024E0004B1781110E949E0EE6E0F4E0A1EDB1E0F1
:1024F00000E010E0C02EDD9081918D2549F1E12CA6
:10250000FF24F3949F2D9823F1F00E942C1488232C
:1025100099F0E982CA82DF2081E009F480E08B83B0
:102520000E94AA0E8160782F9D838C8349815A81F5
:102530006B818D810E94FA01F801EA5FFB4F808177
:10254000F826F0821AC0E394FF0C26E0E212DACFFC
:102550000F5F1F4F0A30110569F68FEF8E838F834F
:1025600018860E94AA0E8160782F9A8789874E81EB
:102570005F8168858A850E94FA018091030488231F
:1025800009F403C180910104909102040E948F0E0E
:10259000C29730F00E94AA0E909302048093010427
:1025A0002091FF03309100042115310509F4EDC09D
:1025B0008091FE038111E9C0082F10E07101082EFF
:1025C00002C0EE0CFF1C0A94E2F7A9014E215F2124
:1025D000452B11F48F5FF0CF9091FD03980165E0DA
:1025E000220F331F6A95E1F790FD12C08295880F84
:1025F000807680932C01220F232F221F330B3195DD
:1026000020932F01815E80932D011092300112C022
:1026100045E0369527954A95E1F7220F220F220FC4
:1026200020932C0110922F01295F20932D0183E02C
:102630008093300124E630E047E050E06AE271E048
:1026400088E70E94851D892B09F09FC08091FD03BA
:1026500080FD18C0A80135E0440F551F3A95E1F7F9
:1026600043505E4F04E610E020E230E060E488E78B
:102670000E94AC1D892B09F088C080910304811150
:1026800069C077C080E2EDEDF1E0DF011D928A952F
:10269000E9F7A80185E0440F551F8A95E1F7E7E4C3
:1026A000F1E0FC87EB8793E4C92E91E0D92E2BE46F
:1026B000422E21E0522EAB85BC852D91BC87AB8785
:1026C000F60181916F018A01080F111D03501E4F01
:1026D00030E023523E4FF90197E0BF01621B730BBC
:1026E000822C01C0880C6A95EAF75801912CD5011B
:1026F0008D915D018821692F69196770762E062EEC
:10270000000C770BB82F01C0BB0F7A94EAF77B2E31
:102710007195619571096770772701C086956A95F3
:10272000EAF7782A8081782A7082939488E0981258
:10273000DECF915031969F3F81F6AB85BC854A161E
:102740005B0609F0B8CF04E610E020E230E04DED82
:1027500051E08CCF8091DC0181110BC062E070E010
:1027600087EF91E00E94C709892B19F481E08093DB
:10277000DC01E094F0948091FF0390910004E82242
:10278000F922F0920004E092FF030E943A10909127
:102790000404891709F45ACE0E943A108093040465
:1027A00055CE09BD19BD09B400FEFDCF8091D800FA
:1027B0008F7D8093D8008091E00082608093E0005C
:1027C0008091E00081FDFCCF0E941D1C46CE80E080
:1027D00008959091C30192FF0DC0282F28712830D1
:1027E00019F4877F846006C0282F2471243011F4E7
:1027F0008B7F886093FF0DC0282F2871283119F432
:10280000877E846106C0282F2471243111F48B7EC9
:1028100088612091C40120FF0DC0382F38713830F5
:1028200019F4877F816006C0382F3171313011F47F
:102830008E7F886021FF0DC0282F2871283119F460
:10284000877E816106C0282F2171213111F48E7E8F
:10285000886194FD877E089580916A04811118C073
:102860008091D80080618093D8008AE18A95F1F741
:1028700000C08091D90080FD02C082E001C081E0EB
:1028800080936A04823021F40E94140D1092980102
:1028900081E090916A04913009F080E00895F89405
:1028A000E82FE295EF70F0E031A1282F2F7081E042
:1028B00090E001C0880F2A95EAF7982F909593230E
:1028C00091A392A1892B82A378940895CF93DF934B
:1028D0008238910569F1B0F48133910509F46FC034
:1028E00048F48932910509F465C08A32910509F4EA
:1028F0006BC08AC08533910509F457C089339105AF
:10290000B9F082C0833E910571F138F4803E9105A3
:10291000B1F0823E910511F177C0863E9105B9F183
:10292000873E9105C9F1843E910509F06DC024C030
:102930002091C30120FD53C021FD51C065C080918D
:10294000C30180FD46C08091C40180FF48C08091D2
:10295000C30184FD3FC183EE90E03EC18091C3017D
:1029600082FF3AC0F4CF8091C30182FD35C08091CF
:10297000C40180FD34C0EBCF8091C40181FF35C01C
:102980008091C30184FD26C187EE90E025C180912E
:10299000C30183FF27C0F4CF8091C30183FD22C010
:1029A0008091C40181FD21C0EBCF8091C30185FDE1
:1029B0001FC021C08091C30185FD1DC019C0809139
:1029C000C30186FD1BC01DC08091C30186FD19C0D7
:1029D00015C089E390E000C182EE90E0FDC080EE7A
:1029E00090E0FAC086EE90E0F7C084EE90E0F4C08C
:1029F00089E290E0F1C085E390E0EEC08AE290E0E9
:102A0000EBC081E390E0E8C0811532E5930708F060
:102A100069C0811541E5940728F0982F8827816FB8
:102A2000906ADAC0883E910568F5803E910508F00D
:102A3000D3C0883A9105B8F4853A910548F0855A93
:102A4000E82FF0E0E55BFE4F808190E09064C4C029
:102A50008130910509F4BBC008F4BCC084309105F5
:102A600008F4B8C0B9C08F3B910508F0B3C0885ACC
:102A7000E82FF0E0EE0FFF1FE25BFE4F80819181B7
:102A80009464AAC0811520E59207F0F09C0174E0DF
:102A9000369527957A95E1F7922F9370482F4370DA
:102AA00021E030E002C0220F331F4A95E2F73C6874
:102AB000392B8F70982F9695969540E2949FC00180
:102AC0001124822B932B88C0811530E4930718F0D2
:102AD0009F70906A81C09C013A9521153F4108F48E
:102AE0007BC078C0EC01C11586E5D807E8F5C115B3
:102AF00025E5D20748F08C2F0E94E9138F7190E0F2
:102B0000982F8827906268C0C11534E5D30728F054
:102B10009C2F8827846F906A5FC0AE014370552751
:102B20002C2F26952695C115D34578F481E090E0A9
:102B300002C0880F991F4A95E2F740E2249F900156
:102B40001124822B932B9C6847C081E090E002C047
:102B5000880F991F4A95E2F740E2249F90011124C3
:102B6000822B932B9A6838C0C1152AE5D207F8F456
:102B7000C11539E5D30790F08C2F8F700E94E913AF
:102B800094E0D695C7959A95E1F7CF70D0E0DC2F09
:102B9000CC27D0699E01282BC9011EC0C11548E56C
:102BA000D407C0F09C2F8827806F906A15C0CE0193
:102BB00090568115904270F48D2F8F710E94E91309
:102BC000282F2F71CE0199279062922B05C081E0AA
:102BD00090E002C080E090E0DF91CF910895CF9324
:102BE00084E090E00E941320C82F82E290E00E94CF
:102BF00013202C2F30E0A901582BCA01CF91089542
:102C000069EE7EEF80E090E00E943F2060E082E08D
:102C100090E00E94212060E083E090E00E9421206B
:102C200010925A0410925B0410925C0410925D049E
:102C300060E084E090E00E94212060E082E290E089
:102C40000E94212060E085E090E00E94212060E069
:102C500086E090E00E9421206FEF87E090E00E94E4
:102C6000212040E050E0BA0188E090E00E9433204B
:102C700060E08DE090E00E94212040E050E0BA0149
:102C800088E190E00E94332060E087E190E00E94BC
:102C9000212040E050E0BA018CE190E00E94332016
:102CA00060E070E080E290E00E943F2040E050E071
:102CB000BA0188E190E00E94332040E050E0BA0180
:102CC0008FE090E00E94332040E050E0BA0183E1C1
:102CD00090E00C9433208091590481111092590492
:102CE00008959091580480915704892B209156049F
:102CF000982F922B9093150480915904882389F082
:102D0000892B80931504E7E1F4E097E080E091508F
:102D100029F021912223D9F38F5FF9CF81110E94ED
:102D20006B16E0917F01F0918001309731F00280C5
:102D3000F381E02D85E194E009940895CF93C0914B
:102D4000C401C2FB992790F9981781F080FBC2F962
:102D5000C093C4016091C30184E090E00E942120EF
:102D60006C2F82E290E0CF910C942120CF910895B6
:102D7000209155048095822380935504982F977055
:102D800041F430E0482F082E000C550B241735076E
:102D900021F49091C40192FF07C085958595859592
:102DA0000E94CD1B10925504089580915404909177
:102DB0002304891719F08F5F8770FBCF08950F9355
:102DC0001F93CF93DF938091220482958F7009F037
:102DD0005DC080911F04882309F458C08091540479
:102DE0001091230460911D0470911E04C091200471
:102DF000D091210491E06F3F09F090E0292F06E087
:102E0000811709F443C0209721F07F3F21F030E083
:102E100003C031E001C0322F90E030FD34C0089F84
:102E2000F001099FF00D1124DF01AC5DBB4F11963D
:102E30003C911197371327C03C91361324C012964A
:102E40003C91129731111FC013964D915C911497CC
:102E50004C1B5D0B4D375105B0F4809122048F70EF
:102E6000806180932204E75DFB4F80818F708061D9
:102E700080838DE194E00E94A202DF91CF911F91A7
:102E80000F910C94D51601968770BACFDF91CF9130
:102E90001F910F9108957F928F929F92AF92BF9250
:102EA000CF92DF92EF92FF920F931F93CF93DF9316
:102EB000CDB7DEB72F970FB6F894DEBF0FBECDBFEC
:102EC0009E012F5F3F4F79018AE0D9011D928A95BB
:102ED000E9F703E311E0490188E3A82E81E0B82E69
:102EE000CC24C394D12CF80180818F3F09F448C0D1
:102EF000F894E82FE295EF70F0E021A18F70A60121
:102F000002C0440F551F8A95E2F7CA01922F982BF1
:102F100091A392A18095892382A3789400C0EDE3C8
:102F2000F1E020E030E0712C81918F3FB9F0A82FC3
:102F3000A295AF70B0E090964C9150E08F70DA019E
:102F400002C0B595A7958A95E2F7A0FD07C08C2D24
:102F5000022E01C0880F0A94EAF701C080E0782AA7
:102F60002F5F3F4F26303105F9F6F80180818F3F02
:102F700011F00E944F14F0EAFA95F1F7D4017C9217
:102F80000F5F1F4FBFEF8B1A9B0AA016B10609F007
:102F9000AACF4AE050E0B70185EC91E00E948B2275
:102FA0008C01892B41F08AE0F701A5ECB1E001909A
:102FB0000D928A95E1F7F090D0010115110549F0C5
:102FC00081E0809360040E94AA0E90935F04809336
:102FD0005E04809160048823B9F080915E04909132
:102FE0005F040E948F0E059778F0A5ECB1E0EF2DFD
:102FF000F0E0EF52FE4F8AEC91E02D9121938A1779
:103000009B07D9F7109260040115110509F0E7C07C
:103010000E942C14E091D001882309F49AC08E01FB
:10302000055F1F4F85E0D8011D928A95E9F7F0E012
:103030009F012F523E4F79018091BA01AE01405F4E
:103040005F4F6A018A3048F441E85FE0B801C70188
:103050000E944A108823B1F00AC0809161049091C7
:1030600062040E948F0E843F914070F71CC04FE0B5
:103070005FE0B801C7010E944A10882319F010923E
:10308000BA0118C08091BA018F3F19F08F5F809309
:10309000BA018091BA018A3068F00E94AA0E90931A
:1030A000620480936104E091CF01F0E0EF52FE4FA3
:1030B000D80112C0E091CF01F0E0EF52FE4FD801ED
:1030C00010E08D919081981711F0808311E0319676
:1030D000CA16DB06B1F706C011921D92CA16DB06AE
:1030E000D9F711E080916404909165040E948F0EDD
:1030F000893E934060F160916304E62EF12C6627CF
:1031000077276E197F09072E000C880B990B0E94F8
:103110000A2127EA39E747E45DE30E94D7214B0102
:103120005C01B701FF0C880B990B0E940A219B01DF
:10313000AC01C501B4010E9456200E94D9206093C1
:1031400063040E94AA0E9093650480936404012F87
:1031500048C0F0E0EF52FE4FF89485E0ADEAB1E0F0
:1031600001900D928A95E1F78DEA91E00E94F009B5
:103170008093AC017894F894C090B201D090B301E0
:10318000E090B401F090B5018091660490916704DD
:10319000A0916804B0916904C816D906EA06FB0636
:1031A000E1F0C0926604D0926704E0926804F09265
:1031B00069040E942C14811110C00E949E0EA70168
:1031C0009601261B370B480B590B2093BB013093FC
:1031D000BC014093BD015093BE01789402C001E050
:1031E00010E0802F2F960FB6F894DEBF0FBECDBF34
:1031F000DF91CF911F910F91FF90EF90DF90CF90D3
:10320000BF90AF909F908F907F90089580E090E066
:103210000E94241080E090E00E94F90E1092570462
:10322000109256040C9471168F929F92AF92BF9297
:10323000DF92EF92FF920F931F93CF93DF938090D3
:10324000BF019090C001A090C101B090C201409117
:103250005A0450915B0460915C0470915D04842A6F
:10326000952AA62AB72ACFE1D0E026E0929F7001E6
:1032700011249CE3D92E082F10E0D501C4010C2E97
:1032800004C0B695A795979587950A94D2F780FDC7
:1032900004C0219790F780E014C0DC9EF001DD9E11
:1032A000F00D1124EE0DFF1DE00FF11FEE0FFF1FBB
:1032B000E750FE4F859194910E946614019749F35F
:1032C0008C2FDF91CF911F910F91FF90EF90DF90A6
:1032D000BF90AF909F908F900895CF93DF93EC01B4
:1032E0000E9414192CE3829FC0011124FC0126E0E6
:1032F000D29FE00DF11D1124EC0FF11DEE0FFF1F09
:10330000E750FE4F859194910E946614DF91CF9112
:103310000895FC01808191810E946D19292F2F70E1
:10332000E92FE295EF704E2F50E0FA013297EE3020
:10333000F105B8F4E459FF4F0C946322803F99F0F3
:1033400018F4883E70F40FC0843F59F40CC0883ED6
:1033500050F0813F31F407C0822F8695869586957F
:10336000089580E0089581E008959F92AF92BF9202
:10337000CF92DF92EF92FF920F931F93CF93DF9341
:10338000CDB7DEB761970FB6F894DEBF0FBECDBFE5
:103390008C0185E0F801DE011D9601900D928A9561
:1033A000E1F7F801E28090911D0460911E044091C4
:1033B0002004509121044115510531F06F3F31F443
:1033C00081E09F3F19F403C081E001C080E0F82F45
:1033D000F1709F2E80FD1AC1F80130812181C380D8
:1033E000D4808DE1A82E84E0B82EF0901F04F60161
:1033F000E41BF50BFF2009F4C6C080912204ED37D1
:10340000F10508F091C0482F407F09F050C06213C9
:1034100011C093130FC0FE2CE1100CC08F7080619F
:1034200080932204C5010E94A20280912204F80127
:10343000858329C1CD2831F02F3F31F481E03F3F12
:1034400019F403C081E001C080E080FD03C081E089
:103450008E2502C080E090E0F82FF170FF2E80FFF3
:103460001CC0809154044091230456E0841709F451
:10347000E8C090E0589FF001599FF00D1124EC5DD9
:10348000FB4F6181261306C06081631303C0628114
:10349000E61203C001968770E9CFFE2CEE2009F4F6
:1034A000F2C08091220481608093220449C062139B
:1034B00006C0931304C0E11002C0F80186C0C80121
:1034C0000E948919882351F1EE2041F120912204B4
:1034D000822F82958F7090E0029774F080911D0486
:1034E00090911E0498878F831986DB86CA862C8765
:1034F000CE0107960E94A20286E0F801ADE1B4E099
:1035000001900D928A95E1F70E94DF160AC06217BA
:10351000C9F0C8010E94891981111EC0C8010E940A
:10352000A202FF24F394AFC0482F407F81F78DE1C2
:1035300094E00E94A20286E0F50111928A95E9F7D3
:10354000F12CA1C09313E5CFE110E3CFF8018583FF
:10355000C8010E94A20254C0EE2001F3209122046F
:10356000822F82958F7090E0029734F280911D0433
:1035700090911E049A8389831B82DD82CC822E83E4
:10358000CE010196B7CFED37F105D0F5FE2CEE2038
:1035900029F2621327C0931325C02091220420FD35
:1035A00018C0822F82958F70482F50E04115510529
:1035B00081F0F80125834F30510541F08F5F982F3E
:1035C0009295907F822F8F70892B8583C8010E94EE
:1035D000A20286E0F801ADE1B4E001900D928A9577
:1035E000E1F751C0C8010E948919811185CF8091EE
:1035F0002204816080932204C8010E94A20243C079
:1036000086E0F50111928A95E9F73DC0EE2009F4B4
:1036100085CFC8010E948919F82E882309F47ECF2E
:1036200086E0F801ADE1B4E001900D928A95E1F7F2
:1036300080911D0490911E040E946D190E94DF1656
:1036400022C03D872E878D859E850E946D19292F6A
:1036500022952F70223028F49F7039F0811105C017
:103660000BC0243028F49F7049F4805E883020F02D
:10367000C8010E94A2029F2CF92C05C0F801958177
:10368000907F99F7F9CF8F2D61960FB6F894DEBF32
:103690000FBECDBFDF91CF911F910F91FF90EF90A3
:1036A000DF90CF90BF90AF909F900895292F220F69
:1036B000920F990F890F682F669566956695982FDA
:1036C000977085E0689FB001112440E050E080E0F1
:1036D000FB01E40FF51FE559FB4F208130E0092E77
:1036E00002C0369527950A94E2F721703327042EFD
:1036F00001C0220F0A94EAF7822B4F5F5F4F4530DB
:10370000510531F70895292F220F920F990F890F34
:10371000E82FE695E695E695877051E001C0550FD4
:103720008A95EAF785E0E89FF0011124E559FB4FFF
:1037300020E030E070E04081CB01022E02C096957F
:1037400087950A94E2F781708195842785238427E1
:1037500081932F5F3F4F2530310569F708950F930F
:103760001F938B019C010670112722273327DC0150
:10377000CB01063011052105310511F4886001C027
:10378000877F8093BF019093C001A093C101B09344
:10379000C2011F910F910C9406190F931F9341E0E2
:1037A00050E060E070E004C0440F551F661F771FB3
:1037B0008A95D2F740955095609570958091BF019C
:1037C0009091C001A091C101B091C2018A019B01F9
:1037D000082319232A233B23C901B8011F910F9104
:1037E0000C94AF1B0F931F9341E050E060E070E03A
:1037F00004C0440F551F661F771F8A95D2F780912A
:10380000BF019091C001A091C101B091C2018A0194
:103810009B01082B192B2A2B3B2BC901B8011F91A7
:103820000F910C94AF1B60935A0470935B048093C8
:103830005C0490935D040C9406191092580486E081
:10384000E7E1F4E0DF011D928A95E9F70C9406198F
:10385000882341F0809590915804892380935804DF
:103860000C9471160895882339F090915804892B8F
:10387000809358040C94711608958823A9F19CEF45
:10388000980F913A60F4E5E1F4E09281891301C068
:103890001282319644E0EB31F407B9F714C090E29C
:1038A000980F983090F4877021E030E0A90102C0B1
:1038B000440F551F8A95E2F7CA01809590915804EC
:1038C0008923809358040C9471169BE5980F9330CC
:1038D00020F480E090E00C942410885A873120F482
:1038E00080E090E00C94F90E0895CF93882309F4BA
:1038F00053C09CEF980F913AF8F4C82FE7E1F4E039
:103900008DE194E02191C21721F08E179F07D1F726
:103910000DC0E5E1F4E08281C81301C01282319646
:1039200044E0EB31F407B9F70E9471166C2F85E182
:1039300094E00E94DF0E13C090E2980F983090F44C
:10394000877021E030E0A90102C0440F551F8A951D
:10395000E2F7CA0190915804892B80935804CF91C3
:103960000C947116EBE5E80FE33040F4F0E0E55B12
:10397000FE4F808190E0CF910C942410885A8731BB
:1039800058F4E82FF0E0EE0FFF1FE25BFE4F80815E
:103990009181CF910C94F90ECF9108951092B900B6
:1039A0008CE08093B80008959F92AF92BF92CF921F
:1039B000DF92EF92FF920F931F93CF93DF93B82E76
:1039C000EB010E94AA0E6C01C431D10558F0CF3F23
:1039D0008FEFD80759F0CE0164E170E00E94FF1F1D
:1039E0007B0107C0EE24E394F12C03C025E0E22E16
:1039F000F12C84E8A82E94EA992E1092BC009092A3
:103A0000BC000E94AA0E8C018091BC0087FD08C0FA
:103A10000E94AA0E801B910B8E159F05A8F32AC049
:103A20008091B900887F883041F08091B900887F0B
:103A3000803119F00FEF1FEF1FC0B092BB00A092B2
:103A4000BC000E94AA0E8C018091BC0087FD08C0BA
:103A50000E94AA0E801B910B8E159F05A8F30AC029
:103A60008091B900887F883111F0803419F700E027
:103A700010E00EC00EEF1FEFCF3F8FEFD80709F415
:103A8000BCCFC6010E948F0E8C179D0708F4B5CFDE
:103A9000C801DF91CF911F910F91FF90EF90DF90C0
:103AA000CF90BF90AF909F9008950F931F93CF93A7
:103AB000DF93EB018093BB0084E88093BC000E94FD
:103AC000AA0E8C018091BC0087FD0EC0CF3F8FEF06
:103AD000D807C1F30E94AA0E801B910B8C179D077B
:103AE00088F38EEF9FEF0CC02091B900287F81E012
:103AF00090E0283211F480E090E091958195910951
:103B0000DF91CF911F910F910895CF92DF92EF92A5
:103B1000FF920F931F93CF93DF936B018A0179017B
:103B2000B9010E94D41CE6010C0D1D1DC017D10760
:103B300061F424E92093BC00DF91CF911F910F9194
:103B4000FF90EF90DF90CF90089597FDF2CFB701EF
:103B500089910E94551DEACFCF92DF92EF92FF929A
:103B60000F931F93CF93DF93C62F6A017901B8019A
:103B70000E94D41C97FD11C0B8018C2F0E94551DC6
:103B8000E601EC0CFD1CCE15DF0539F097FD05C0F4
:103B9000B80189910E94551DF6CF24E92093BC00FD
:103BA000DF91CF911F910F91FF90EF90DF90CF9019
:103BB000089584E98093BC0008958EE14A9B02C079
:103BC0008150E1F74A9BFECF08955A9880E28A958A
:103BD000F1F75A9A0895FC012AE02A95F1F728E0B6
:103BE00090E080E031E040E14A95F1F7880F4A9B90
:103BF00002C08160932700C0000040E14A95F1F7C0
:103C0000215089F720E12A95F1F729B100C0000081
:103C100030E13A95F1F722FB222720F99227208103
:103C2000920F90830895EF92FF920F931F93CF937B
:103C3000DF931F92CDB7DEB719828C017C01E60EAF
:103C4000F11C0E151F0551F00E94DD1DCE010196DD
:103C50000E94EB1DF80181938F01F3CF81E09981E0
:103C6000911180E00F90DF91CF911F910F91FF9004
:103C7000EF900895529A5A9A089552985A9AEA9A49
:103C8000E9E6F0E080818F7C80830895615091E0C7
:103C900001C0990F6A95EAF720E031E0992361F0BD
:103CA000492F482319F05A9A232701C05A9840E215
:103CB0004A95F1F79695F2CF222311F05A9A01C056
:103CC0005A9880E28A95F1F75A980895FF920F93D7
:103CD0001F93CF93DF93EC018C01060F111DC017CA
:103CE000D10741F0F9900E94E51D68E08F2D0E94F8
:103CF000461EF5CFDF91CF911F910F91FF90089550
:103D00001F920F920FB60F921124EF92FF920F9312
:103D10001F932F933F934F935F936F937F938F9353
:103D20009F93AF93BF93EF93FF93CF93DF931F9234
:103D3000CDB7DEB719820E94DD1DCE0101960E942B
:103D4000EB1DA82FA695A695A6959A2F96959570EA
:103D50002A2F2570920F292F237096959695920FF2
:103D6000877089137CC08981811179C0A43008F0E3
:103D700076C080E18A95F1F75A9A529AB2E0BA95E4
:103D8000F1F700C05A98EA2EF12CEAE0AE9FD0017C
:103D90001124AF5FBE4F1896ED91FC9119973097A3
:103DA000B1F0609131017091320116962D913C91E4
:103DB0001797260F371F13968D919C911497680FB4
:103DC000791F15964C91159712968C9109958AE05A
:103DD0008E9DF0018F9DF00D1124EF5FFE4F6581E8
:103DE000662351F080913101909132012681378113
:103DF000820F931F0E94661E0E94E51DF0E1FA9556
:103E0000F1F75A9852985A9A80E18A95F1F78AE028
:103E10008E9D80018F9D100D11240F5F1E4FD801C4
:103E200012966C911297662399F0809131019091CE
:103E3000320113962D913C911497820F931F0E948B
:103E4000131ED801ED91FC91811105C082E004C0E0
:103E5000D801ED91FC9188E080830E94DD1D0F90D8
:103E6000DF91CF91FF91EF91BF91AF919F918F9192
:103E70007F916F915F914F913F912F911F910F9182
:103E8000FF90EF900F900FBE0F901F9018950F931B
:103E90001F93CF93DF93843091050CF0A9C02AE0E3
:103EA000289FF001299FF00D1124EF5FFE4F208124
:103EB0003181232B09F49CC0EC01F894529A5A9852
:103EC00085E08A95F1F700008C2F869585709C2FF0
:103ED0009570890F982F9370869586958E0123E0B3
:103EE000000F111F2A95E1F7890F082B0E94E51D8D
:103EF000A4E0AA95F1F700C068E0802F0E94461E5A
:103F0000B0E1BA95F1F752985A9A4A9902C000C0A6
:103F1000FCCF87E090E04A9B17C0019799F4529A32
:103F20005A9A8AE08C9FF0018D9FF00D1124EF5F6B
:103F3000FE4F0190F081E02D81E08083789481E054
:103F400090E058C000C0E7CF8AE08C9F80018D9F31
:103F5000100D11240F5F1E4FF80165816623B9F023
:103F6000809131019091320126813781820F931F18
:103F70000E94131E81110BC0529A5A9AD801ED91DA
:103F8000FC9182E08083789482E090E033C00E94CC
:103F9000DD1DB0E2BA95F1F75A98529AE0E1EA9540
:103FA000F1F78AE08C9FF0018D9FF00D1124EF5FF7
:103FB000FE4F6281662351F0809131019091320170
:103FC00023813481820F931F0E94661E0E94E51D8B
:103FD0008AE08C9FF0018D9FF00D1124EF5FFE4F62
:103FE0000190F081E02D1082789480E090E002C092
:103FF00084E090E0DF91CF911F910F910895AA1B6B
:10400000BB1B51E107C0AA1FBB1FA617B70710F0C3
:10401000A61BB70B881F991F5A95A9F780959095F5
:10402000BC01CD010895F999FECF92BD81BDF89AEA
:10403000992780B50895A8E1B0E042E050E00C94E3
:104040004720262FF999FECF92BD81BDF89A01979E
:1040500000B4021639F01FBA20BD0FB6F894FA9AD0
:10406000F99A0FBE08950396272F0E9422200E94DE
:104070002120252F0E942220242F0C9422200196FB
:10408000272F0E9422200C942120DC01CB01FC016F
:10409000F999FECF06C0F2BDE1BDF89A319600B4A1
:1040A0000D9241505040B8F708955058BB27AA27A9
:1040B0000E946D200C9485210E94772138F00E9487
:1040C0007E2120F039F49F3F19F426F40C947421DA
:1040D0000EF4E095E7FB0C944521E92F0E94962110
:1040E00058F3BA17620773078407950720F079F42D
:1040F000A6F50C94D0210EF4E0950B2EBA2FA02D2E
:104100000B01B90190010C01CA01A0011124FF2784
:10411000591B99F0593F50F4503E68F11A16F0407F
:10412000A22F232F342F4427585FF3CF469537957E
:104130002795A795F0405395C9F77EF41F16BA0B43
:10414000620B730B840BBAF09150A1F0FF0FBB1FF1
:10415000661F771F881FC2F70EC0BA0F621F731F3A
:10416000841F48F4879577956795B795F7959E3F97
:1041700008F0B0CF9395880F08F09927EE0F979528
:10418000879508950E94B82190F09F3748F49111C7
:1041900016F40C94D12160E070E080E89FE308956C
:1041A00026F01B16611D711D811D0C944B210C9472
:1041B00066210E949E2188F09F5798F0B92F992779
:1041C000B751B0F0E1F0660F771F881F991F1AF002
:1041D000BA95C9F714C0B13091F00E94D021B1E076
:1041E00008950C94D021672F782F8827B85F39F075
:1041F000B93FCCF3869577956795B395D9F73EF49B
:1042000090958095709561957F4F8F4F9F4F089542
:10421000E89409C097FB3EF4909580957095619560
:104220007F4F8F4F9F4F9923A9F0F92F96E9BB2716
:104230009395F695879577956795B795F111F8CF92
:10424000FAF4BB0F11F460FF1BC06F5F7F4F8F4FFD
:104250009F4F16C0882311F096E911C0772321F0F3
:104260009EE8872F762F05C0662371F096E8862F8B
:1042700070E060E02AF09A95660F771F881FDAF7E2
:10428000880F9695879597F9089597F99F6780E825
:1042900070E060E00895882371F4772321F098504E
:1042A000872B762F07C0662311F499270DC09051F4
:1042B000862B70E060E02AF09A95660F771F881FC2
:1042C000DAF7880F9695879597F908959F3F31F013
:1042D000915020F4879577956795B795880F911D34
:1042E0009695879597F908959FEF80EC089500249F
:1042F0000A941616170618060906089500240A944B
:1043000012161306140605060895092E0394000CD0
:1043100011F4882352F0BB0F40F4BF2B11F460FF5F
:1043200004C06F5F7F4F8F4F9F4F089557FD905888
:10433000440F551F59F05F3F71F04795880F97FB69
:10434000991F61F09F3F79F0879508951216130623
:104350001406551FF2CF4695F1DF08C01616170652
:104360001806991FF1CF8695710561050894089587
:104370000E949E21A0F0BEE7B91788F4BB279F38A2
:1043800060F41616B11D672F782F8827985FF7CF36
:10439000869577956795B11D93959639C8F30895DD
:1043A000E894BB2766277727CB0197F908950E94E9
:1043B000EA210C9485210E94772138F00E947E2109
:1043C00020F0952311F00C9445210C9474211124B4
:1043D0000C94D1210E94962170F3959FC1F3950F03
:1043E00050E0551F629FF001729FBB27F00DB11D79
:1043F000639FAA27F00DB11DAA1F649F6627B00D09
:10440000A11D661F829F2227B00DA11D621F739FF1
:10441000B00DA11D621F839FA00D611D221F749FFF
:104420003327A00D611D231F849F600D211D822F46
:10443000762F6A2F11249F5750409AF0F1F088236D
:104440004AF0EE0FFF1FBB1F661F771F881F91509A
:104450005040A9F79E3F510580F00C9445210C94E3
:10446000D1215F3FE4F3983ED4F386957795679525
:10447000B795F795E7959F5FC1F7FE2B880F911DC4
:104480009695879597F90895052E97FB1EF400944D
:104490000E945B2257FD07D00E94692207FC03D0CF
:1044A0004EF40C945B2250954095309521953F4FEA
:1044B0004F4F5F4F089590958095709561957F4F10
:1044C0008F4F9F4F0895EE0FFF1F0590F491E02D41
:1044D0000994A1E21A2EAA1BBB1BFD010DC0AA1F45
:1044E000BB1FEE1FFF1FA217B307E407F50720F05D
:1044F000A21BB30BE40BF50B661F771F881F991FD8
:104500001A9469F760957095809590959B01AC0120
:10451000BD01CF010895FB01DC0104C08D91019024
:10452000801921F441505040C8F7881B990B089519
:10453000FB01DC0102C001900D9241505040D8F7C0
:064540000895F894FFCF7E
:1045460001A2010000000100000000A2010000001D
:104556000501000000A201040600000000000001A1
:1045660065099B096409970993090021007F2200C8
:1045760003AC016697C634350000000000F6F7313B
:104586003332360008101818100800818283E200C2
:10459600E900EA00B500B600B700CD008301CC0003
:1045A6008A01920194012102230224022502260295
:0C45B60027022A02B300B4006F0070005E
:00000001FF
